:200000000C944D260C9478260C9478260C9478260C9478260C9478260C9478260C9478261B
:200020000C9478260C9478260C9478260C9478260C9478260C9478260C948A5F0C94782685
:200040000C9478260C9478260C9478260C9478260C9460660C9478260C9478260C94782688
:200060000C9478260C9451270C9478260C9478260C9478260C9478260C9478260C947826B6
:200080000C9478260C9478260C9478260C9478260C9478260C9478260C9478260C94782670
:2000A0000C9478260C9478260C9478260C94625F0C9478260C9478260C9478260C9478262D
:2000C0000C9478260C9478260C9478260C9478260C9478260C9478260C9478260C94782630
:2000E0000C9478260C9478260C9478260C9478260C9478260C9478260C9478260C94782610
:200100000C94EC660C9478260C9478260C9478260C9478260C9478260C9478260C9478263B
:200120000C9478260C9478260C9478260C9478260C9478260C9486630C9478260C94782684
:200140000C9478260C9478260C9478260C94496A0C9478260C9478260C9478260C9478269A
:200160000C94DD260C9478260C9478260C9478260C9478260C9478260C9478260C9478262A
:200180000C9478260C9478260C9478260C9478260C9478260C9478260C9478260C9478266F
:2001A0000C9478260C9478260C9478260C9478260C9478260C9478260C9478260C9478264F
:2001C0000C9478260C9478260C9478260C9478260C9478260C9478260C9478260C9478262F
:2001E0000C9478260C9478260C9478260C9478260C9478260C94A6930C947826B28ED18E13
:20020000928FD18E928F128F268F928F6E8F778F0000000000000080C0E0F8FCFFFFFCE0D5
:20022000E0E0E0E0E0E0E0E0C0C080808000000000000000000000000000000000181C3F4B
:200240003F7F7FFFFFFFFFFFEF8F0F0F0F0F0F0F0F0F1F1F1F3F3E7CF0C00000000000006A
:2002600000000000000080800000000001010303030302000000C0C0C0C08080000000006E
:200280000001010000000000000000000000000F1F3E7CF8F8F8F8F0F0F0F0F0F0F0F0F321
:2002A000FFFFFFFFFFFEFEFEFC7818000000000000000000000000000000000001010103B7
:2002C0000307070707070707071F7FFF3F1F0F0301000000000000000000000000000000D5
:2002E000000000000000000000F8F8F8F8F8F800000000000000000000000000000000002E
:200300000000000000000000000000000000000000C1C1C1C1C1C100000000000000000057
:2003200000000000000000000000000000000000000000000000000000077FFFFFFFFFE05B
:2003400080000000000000000000000000000000000000000000000000000000000000001D
:2003600000000001070F1F3F7FFFFEFCF8F0E0C08000000000000000000000000000000088
:200380000000000000000000000000000000000000000103070F3FFFFFFEFCF0800000009C
:2003A0000000003EFEFEFEFEF8C080000000000000000000000000000000000000C0E0FF30
:2003C000FFFFFFFF0F0000000000000001030F1F1F3F7F7FFEFCFCF8F8F8F8F8F8F8F8F8D6
:2003E000FCFCFE7E7F3F3F1F0F070300000000000000000000000000000000000000000054
:200400000001010101010100000000000000000000000000000000000000000000000000D6
:200420000000000000000000000080C0C0800000000000000000000000000000000000003C
:20044000000000000000000000000000E0F0F0E0C000C3E7E7C300C0E0F0F0E00000000088
:200460000000000000000000000000000000003078F8F0E0E0C1C1830300FFFFFFFF000325
:2004800083C1C1E0E0F0F878300000000000000000060F1F3E7CF8F8F0E0E0E1E1C3C3032E
:2004A000C0FFFFFFFFFFFFC003C3C3E1E1E0E0F0F8F87C3E1F0F06000000000000000000E9
:2004C00000010101010303000F1F1F1F1F1F1F0F0003030101010100000000000000000030
:2004E00000000000000000000000000000000000000080C0C080000000000000000000007C
:200500000000000000000000000000000000000000000000E0F0F0E0C0C083878783C0C027
:20052000E0F0F0E0000000000000000000000000000000000000003078F8F0E0E0C1C183C6
:20054000838387878787878383C1C1E0E0F0F878300000000000000000060F1F3E7CF8F83C
:20056000F0E0E0E1E1C3C3C3C7C7C7C7C7C7C7C7C3C3C3E1E1E0E0F0F8F87C3E1F0F0600EF
:20058000000000000000000000010101010303030303030303030303030303010101010029
:2005A00000000000000000000000000000000000000000000000000000000000000000003B
:2005C00000000000000000000000000000000000000000000000000000000000000000001B
:2005E0000000E0E0E0C0C08000000000000000000000000000000000000000000000003C1F
:200600003C3C3C3C3C3C3C3C3C3CFFFFFFFFFFFFFFFF7E7E3C3C18000000000000000000FE
:2006200000000000000000000000000000000000000007070703030101000000000000009D
:2006400000000000000000000000000000000000000000000000000000000000000000009A
:2006600000000000000000000000000000000000000000000000000000000000000000007A
:2006800000C0E0E0E0C000000000000000000000000000000000000000000000000000003A
:2006A00000000000000000000003078707030000000000000000000000000000000000009F
:2006C00000000000000000000000000000000080E0FCFFFFFFFCE080000000000000000065
:2006E000000000000000000000000000000000000000000000003C7FFFFFFFFFFFFFFFFF47
:200700003C000000000000000000000000000000000000000000000000000000000000009D
:200720000001010101010000000000000000000000000000000000000000000000000000B4
:20074000000000000000000000000000000000000000000000000000000000000000000099
:2007600000000000000000000000000000C0C0800000F070000080C0C00000000000000019
:200780000000000000000000000000000000000000000018181881993C7E66667E3C81999D
:2007A0001818180000000000000000000000000000000000000000000000000000030301EA
:2007C00000000F0E00000103030000000000000000000000000000000000000000000000F5
:2007E0000000000000000000000000000000000000000000000000000000000000000000F9
:200800000000000000000000000000000000000000000000000000000000000000000000D8
:2008200000000000000000000000000070F0E0800000000080C0C0E0F0783C3C78F0E0C030
:200840000000000000000000000000000000000000000000000103070F1E1E0F0703010127
:2008600000000000000003070F1E7CF0E0C0800080800000000000000000000000000000B5
:2008800000000000000000000000000000000000000000000D1F1F3F3F7F7F000000000091
:2008A000000000000000000000000000000000000000000000000000000000000000000038
:2008C000000000000000000000000000000000000000000000008080C0C0E0E0F0F0F8F808
:2008E000FCFCFEFEFFFFC0C0E0E0F0F0F8F8FCFCFEFEFFFFFFFFFFFFFFFFFFFFFFFFFFFF10
:20090000FFFFFFFF00000101030307070F0F1F1F3F3F7F7FFFFFFFFFFFFFFFFFFFFFFFFFF9
:20092000FFFF0000000000000000000000000000000000000101030307070F0F1F1F3F3FC9
:20094000021020190700000000000000000000000000000000000000000000000002000043
:20096000FE0200000000000000000000000000000000000000000400000E0000000E000057
:200980000000000000000000000000000000000740005003FE005200F0035E00100000000C
:2009A0000000000000000000079C0112032202FF0722022602C8010000000000000000003F
:2009C000000C00001C00220222029C01400020001000CC0122022202C001090000C0012CCE
:2009E00002120272028C01C001000200020000000000000200000E0000000000000000000B
:200A0000000000000000000000000000030000FC07031800000000000000000000000000B5
:200A200000000000000300000718F80700000000000000000000000000000000000005048C
:200A4000000C0006000C000400000000000000000000000000000007400040004000F803B2
:200A600040004000400000000000000000000000020000000E0000000000000000000000A6
:200A8000000000000000000000040000400040004000000000000000000000000000000092
:200AA000000002000000020000000000000000000000000000000000000000050003E0004A
:200AC0001800070001000000000000000000000000000000060000FC01020202020202FCEB
:200AE00001000000000000000000000000050000000004000400FE030000000000000000E7
:200B00000000000000000600028C038602420222021C020000000000000000000000000729
:200B20008C0106030202020222022202DC010000000000000000000006C000A00098008470
:200B400000FE038000000000000000000000000000060000B801160212021202E201000032
:200B600000000000000000000000070000FC003603120212021602E4010000000000000014
:200B80000000000700000200820362001A000600020000000000000000000000060000DC61
:200BA00001220222022202DC010000000000000000000000000600013C02420242024203D9
:200BC000FC0000000000000000000000000002000010020000000000000000000000000005
:200BE00000000000000000020000100E0000000000000000000000000000000000000000D5
:200C00000700004000A000A0001001100108020000000000000000000007000020012001D8
:200C2000200120012001200100000000000000000000070000080210011001A000A000407D
:200C4000000000000000000000000006000006000300610211000E00000000000000000003
:200C6000000000000A780086017201890285024502FD028F0342013C010000000009000283
:200C8000C00170004E0046005C00E00080030002000000000000080000FE0322022202225B
:200CA0000222022202DC010000000000000000090000F800040102020202020202028C016A
:200CC000C800000000000000080000FE0302020202020202020401F8000000000000000036
:200CE00000070000FE032202220222022202220200000000000000000000070000FE03220E
:200D000000220022002200020000000000000000000000090000F800040102020202220239
:200D200022022401E803000000000000080000FE0320002000200020002000FE03000000D5
:200D40000000000000020000FE03000000000000000000000000000000000000000006800A
:200D6000010002000200020002FE01000000000000000000000000080000FE032000100032
:200D80007800CC00860102020000000000000000070000FE03000200020002000200020072
:200DA0000000000000000000000A0000FE030E003800C0010002C00138000E00FE03000017
:200DC0000000080000FE030E0018007000C0000003FE030000000000000000090000F800AF
:200DE000040102020202020202020401F800000000000000070000FE032200220022002251
:200E0000001C0000000000000000000000090000F800040102020202820202030403F8041C
:200E2000000000000000080000FE0322002200220022006200DC03000000000000000008D8
:200E400000009C0112032202220222022C02C801000000000000000007020002000200FE72
:200E60000302000200020000000000000000000000080000FE010003000200020002000356
:200E8000FE0100000000000000000802001C00F00080038003F0001C000200000000000029
:200EA0000000000C02003E00E0030003F0000E000E00F0000003C0033C00020008020206EE
:200EC00003CC00700070008C0106030202000000000000000009020006000C003000E00399
:200EE00030000C00060002000000000000000800020203C202620232020A0206020202002B
:200F000000000000000000030000FF1F01100000000000000000000000000000000000009F
:200F20000503001C006000800300020000000000000000000000000000020110FF1F000077
:200F40000000000000000000000000000000000000000700006000180006000E003000408E
:200F600000000000000000000000000600080008000800080008000800000000000000003B
:200F8000000000000201000200000000000000000000000000000000000000000007000045
:200FA0009003480248024801F003000200000000000000000000070000FE03180308020897
:200FC000020802F00100000000000000000000070000F001080208020802980190000000D5
:200FE000000000000000000007E00010010802080208021003FE03000000000000000000C7
:2010000000070000F0015803480248025802600100000000000000000000040800FE030A17
:2010200000020000000000000000000000000000000000070000F009081208120812101937
:20104000F80F00000000000000000000060000FE03100008000800F003000000000000006F
:201060000000000000020000FA03000000000000000000000000000000000000000002006F
:2010800010F21F0000000000000000000000000000000000000000070000FE034000600087
:2010A00090010803080200000000000000000000020000FE03000000000000000000000087
:2010C0000000000000000000000A0000F803100008000800F003080008000800F0030000ED
:2010E0000000060000F803100008000800F00300000000000000000000000006F0011803CA
:20110000080208021803F001000000000000000000000000070000F81F180308020802085A
:2011200002F0010000000000000000000007E00010010802080208021003F81F000000007C
:20114000000000000000040000F80310000800000000000000000000000000000000000672
:20116000300168024802480248029001000000000000000000000000030800FE030802004F
:201180000000000000000000000000000000000000060000F801000200020001F803000050
:2011A000000000000000000000000608007800C0030003E0001800000000000000000000EB
:2011C0000000000A080078008003C0033800780080038003780008000000000007080218E0
:2011E00003B0006000B00108030002000000000000000000000608007810C0190007E000C8
:2012000018000000000000000000000000000600020803C80268021802080200000000004B
:20122000000000000000000400004000BF1F0110000000000000000000000000000000007B
:20124000020000FF1F0000000000000000000000000000000000000000030110BF1F40003C
:20126000000000000000000000000000000000000000070000C000400040008000800040E7
:201280000000000000000000000000060000FE03020202020202FE0300000000000000003A
:2012A000000000000318203A0A0000000000000000000000000000000000000000000000AF
:2012C00000000000000000000000000000000000000000000000000000000000000000000E
:2012E000000004000000000000FC9F01FC9F010000000000000000000000000000000000B2
:201300000000000000000000000000000000000000000000000000000000000006000000C7
:201320000000007C00000000000000007C00000000000000000000000000000000000000B5
:20134000000000000000000000000000000000000000000000000B00000080080080C801B1
:2013600080FF01FC0B0084080080C80180FF01FC0F008C0800800000000000000000000072
:20138000000000000000000000000000000000000B006000F0E000FCC1018C830304030338
:2013A000FFFF070402030C060338840130FC010078000000000000000000000000000000A8
:2013C0000000000000000000000013000000000000F00000FC03000402010482010CC300AE
:2013E000F87100F01800000C00000700800100C0780070FC001886010C020104020100FE91
:2014000000007C000E00000000780000FC0078C201FC82018C81010C83018CCF01FCDC0042
:2014200078F000007C0000CC01008001000001000000000000000000000000000000030076
:2014400000000000007C000000000000000000000000000000000000000000000000000010
:2014600000000000000000000000000000000000000000000000000006000000007F00E007
:20148000FF0338000E0C0018040010000000000000000000000000000000000000000000CC
:2014A000000000000000000000000000000000000000050400100C001838000EE0FF0300C7
:2014C000FF000000000000000000000000000000000000000000000000000000000000000D
:2014E00000000000000000000000000007100000900000D000003C00005000009000001049
:201500000000000000000000000000000000000000000000000000000000000000000000CB
:201520000000000000000C000000000800000800000800000800000800C0FF0100080000AF
:2015400008000008000008000008000000000000000000000000000000000000000000006B
:20156000040000000000000080090080070000000000000000000000000000000000000057
:20158000000000000000000000000000000000000000000000000000000007000000000C38
:2015A00000000C00000C00000C00000C00000C0000000000000000000000000000000000EF
:2015C000000000000000000000000000000000000000000004000000000000008001008006
:2015E0000100000000000000000000000000000000000000000000000000000000000000EA
:2016000000000000000000000000000000000700800100E000003C00000700E001007800C6
:20162000000C0000000000000000000000000000000000000000000000000000000000009E
:2016400000000000000000000B000000E03F00F8FF0018C0000C80010C80010C80010C805E
:201660000118C000F8FF00E03F00000000000000000000000000000000000000000000007B
:20168000000008000000000000200000200000200000300000FCFF01FCFF010000000000BA
:2016A000000000000000000000000000000000000000000000000000000000000B0000001F
:2016C000E00001F8E00118B0010C90010C88010C8C010C84011C8201F88301F0800100009F
:2016E000000000000000000000000000000000000000000000000B00000060300078F000E7
:2017000018C0000C80010C82010C82011C8301F8C701F0FC00007800000000000000000082
:20172000000000000000000000000000000000000B003000003800003600003300C03000DD
:20174000603000183000FCFF01FCFF01003000003000000000000000000000000000000059
:20176000000000000000000000000B000000003000E0F3007CC3008C81018C81018C8101F2
:201780008C81018CC3000CFF00003C000000000000000000000000000000000000000000A5
:2017A000000000000B000000C03F00F0FF0018C3008C81018C81018C81018C81019CC300BE
:2017C00038FF00203C000000000000000000000000000000000000000000000000000B006B
:2017E00000000C00000C00000CC0010CF8010C3E008C0300CC00003C00001C00000C0000F6
:201800000000000000000000000000000000000000000000000000000B000000707C00F8D9
:20182000FE009CC7000C83010C83010C83018C8301F8C701F0FE00007C000000000000005D
:201840000000000000000000000000000000000000000B000000E06300F8E70018CE010C68
:201860008C010C8C010C8C010CC40118E600F87F00E01F0000000000000000000000000064
:2018800000000000000000000000000004000000000000C08001C0800100000000000000C2
:2018A000000000000000000000000000000000000000000000000000000000000000000028
:2018C00000000000000004000000000000C08009C080070000000000000000000000000074
:2018E0000000000000000000000000000000000000000000000000000000000000000000E8
:201900000C000000000800001C0000140000360000220000630000410080C10080800080C6
:201920008000C000010000000000000000000000000000000000000000000C000000002238
:20194000000022000022000022000022000022000022000022000022000022000022000033
:2019600000000000000000000000000000000000000000000C000000C0800180800080C1D9
:2019800000004100004300002200002200003600001400001C000008000000000000000011
:2019A00000000000000000000000000000000A0000003000003C00000C0000060000069CFD
:2019C00001069E010E0700FC0100F800000000000000000000000000000000000000000057
:2019E000000000000000000010000000800F00603000104000089F0088BF00C42001642011
:201A000001242001241001643C01C4A701E8A00018D000304800C04700000000000000004F
:201A200000000E00800100E00100FC00001F00E01B007818001C18003C1800F81900C01F18
:201A400000003E0000F80100C0010000010000000000000000000000000000000E0000007F
:201A6000000000FCFF01FCFF010C83010C83010C83010C83010C83010C83010C8301F8C7BF
:201A800001F0FE00007C000000000000000000000000000000000E000000C01F00F07F007F
:201AA00038E0010C80010E80030600030600030600030600030C80011CC00138F0003030D9
:201AC000000000000000000000000000000000000E000000000000FCFF01FCFF010C800173
:201AE0000C80010C80010C80010C80010C800118C00038E000F07F00C01F000000000000E7
:201B0000000000000000000000000C000000000000FCFF01FCFF010C83010C83010C830111
:201B20000C83010C83010C83010C83010C83010000000000000000000000000000000000D5
:201B4000000000000C000000000000FCFF01FCFF010C03000C03000C03000C03000C030036
:201B60000C03000C03000C00000000000000000000000000000000000000000000000F002C
:201B80000000C01F00F07F0038E0001C80010C8001060003060003060603060603068603F6
:201BA0000C86011CE60038FE0120FE030000000000000000000000000E000000000000FC2E
:201BC000FF01FCFF01000300000300000300000300000300000300000300000300FCFF01F5
:201BE000FCFF0100000000000000000000000000000004000000000000FCFF01FCFF0100ED
:201C00000000000000000000000000000000000000000000000000000000000000000000C4
:201C20000000000000000000000000000900F00000F001008003000003000003000003002E
:201C40008003FCFF01FCFF000000000000000000000000000000000000000000000000000A
:201C60000000000000000E000000000000FCFF01FCFF01000600000300800100C0070060AD
:201C80000E00303C003870001CE0000CC00104000100000000000000000000000000000054
:201CA0000C000000000000FCFF01FCFF01008001008001008001008001008001008001001A
:201CC0008001008001000000000000000000000000000000000000000000110000000000F1
:201CE00000FCFF01FCFF013C0000F00000800700003E0000F00100800100F001003E0080DA
:201D00000700F000003C0000FCFF01FCFF010000000000000E000000000000FCFF01FCFF93
:201D200001380000700000C00100800300000E00001C0000700000E000FCFF01FCFF010044
:201D400000000000000000000000000000000F000000C01F00F07F0038E0000C80010E80F3
:201D6000030600030600030600030600030E80030C800138E000F07F00C01F0000000000B8
:201D800000000000000000000D000000000000FCFF01FCFF010C06000C06000C06000C06F6
:201DA000000C06000C06001C0700F80300F0010000000000000000000000000000000000F0
:201DC00000000F000000C01F00F07F0038E0000C80010E80030600030600030640030660AF
:201DE000030EC0030C800138E003F03F03C00F020000000000000000000000000E00000056
:201E0000000000FCFF01FCFF010C06000C06000C06000C06000C06000C06001C0F00F8FF3C
:201E200001F0F0010000010000000000000000000000000000000D000000007000F0F00062
:201E4000FCC1018C81030603030603030603030602030606030C860138FC01307800000006
:201E6000000000000000000000000000000000000C0C00000C00000C00000C00000C00001A
:201E8000FCFF01FCFF010C00000C00000C00000C00000C000000000000000000000000000E
:201EA000000000000000000000000E000000000000FC7F00FCFF0000C00100800300000357
:201EC00000000300000300000300800300C001FCFF00FC7F0000000000000000000000003F
:201EE000000000000D0400003C0000F80100C00F00007E0000F00100800100F001003E00AE
:201F0000C00700F801003C00000400000000000000000000000000000000000000001304AA
:201F200000007C0000F80700807F0000F80100C00100FC00C00F00FC01001C00007C00000D
:201F4000E00700007F0000F00100E00100FE00E00F00FC00001C00000D0400010C80011C89
:201F6000E001787000E03C00C00F00000700C01F00E0380038F0001CC0010C800104000118
:201F80000000000000000000000000000000000000000E0400000C00003C0000780000E08F
:201FA000010080030000FF0100FF01800300E001007000001C00000C00000400000000009D
:201FC0000000000000000000000000000C0080010CC0010CE0010CB8010C9C010C8E010CA5
:201FE00087018C8101CC80017C80013C80011C8001000000000000000000000000000000A7
:2020000000000000000005000000FCFF1FFCFF1F040010040010000000000000000000005F
:202020000000000000000000000000000000000000000000000000000000000000000000A0
:20204000070C0000380000E00100000700003C0000F00000800100000000000000000000A0
:20206000000000000000000000000000000000000000000000000000000004040010040044
:2020800010FCFF1FFCFF1F00000000000000000000000000000000000000000000000000FC
:2020A00000000000000000000000000000000000000000000C000000000400000700C00148
:2020C000007000001C00000C0000380000E0000080030000060000040000000000000000C3
:2020E00000000000000000000000000000000A0000080000080000080000080000080000AE
:20210000080000080000080000080000080000000000000000000000000000000000000097
:202120000000000000000000040400000C0000180000100000000000000000000000000063
:2021400000000000000000000000000000000000000000000000000000000000000000007F
:2021600000000B00000000E30080F301C08901C08801C08801C08801C0C800C0FF0180FF11
:20218000010080010000000000000000000000000000000000000000000000000B000000B2
:2021A000FCFF01FCFF0180C100C08001C08001C08001C0800180C10080FF00003E000000E4
:2021C000000000000000000000000000000000000000000000000B000000003E0080FF0037
:2021E00080C100C08001C08001C08001C0800180C10080E3000022000000000000000000D4
:20220000000000000000000000000000000000000B000000003E0080FF0080C100C0800174
:20222000C08001C08001C0800180C100FCFF01FCFF010000000000000000000000000000A2
:20224000000000000000000000000B000000003E0080FF0080CD00C08C01C08C01C08C0182
:20226000C08C0180CD0080EF00002E00000000000000000000000000000000000000000027
:202280000000000006C00000C00000F8FF01FCFF01CC0000CC00000000000000000000002C
:2022A0000000000000000000000000000000000000000000000000000000000000000B0013
:2022C0000000003E0C80FF0C80C118C08011C08011C08011C0801180E11CC0FF0FC0FF077B
:2022E0000000000000000000000000000000000000000000000000000A000000FCFF01FCDC
:20230000FF01800100C00000C00000C00000C00100C0FF0100FF010000000000000000007B
:2023200000000000000000000000000000000000000003000000CCFF01CCFF010000000002
:2023400000000000000000000000000000000000000000000000000000000000000000007D
:2023600000000000000000000000000003000018CCFF1FCCFF0F000000000000000000007E
:2023800000000000000000000000000000000000000000000000000000000000000000003D
:2023A0000000000000000B000000FCFF01FCFF01000C00000600001F00003B0080F100C07D
:2023C000C0014080010000010000000000000000000000000000000000000000000000007A
:2023E00003000000FCFF01FCFF0100000000000000000000000000000000000000000000E2
:20240000000000000000000000000000000000000000000000000000000011000000C0FFEC
:2024200001C0FF01800100C00000C00000C00000C00100C0FF0180FF01800100C00000C018
:202440000000C00000C00100C0FF0180FF010000000000000A000000C0FF01C0FF018001B0
:2024600000C00000C00000C00000C00100C0FF0180FF01000000000000000000000000001B
:2024800000000000000000000000000000000B000000003E0080FF0080C100C08001C080B2
:2024A00001C08001C0800180C10080FF00003E00000000000000000000000000000000009B
:2024C00000000000000000000B000000C0FF1FC0FF1F80C100C08001C08001C08001C080F1
:2024E0000180C10080FF00003E0000000000000000000000000000000000000000000000DD
:2025000000000B000000003E0080FF0080C100C08001C08001C08001C0800180C100C0FFAE
:202520001FC0FF1F0000000000000000000000000000000000000000000000000700000097
:20254000C0FF01C0FF01000300800100C00000C000000000000000000000000000000000F7
:20256000000000000000000000000000000000000000000000000A00000080630080E70007
:20258000C0C401C08801C08801C08801C0880180F10080F1000000000000000000000000B0
:2025A0000000000000000000000000000000000006C00000C00000F8FF00F8FF01C0800165
:2025C000C080010000000000000000000000000000000000000000000000000000000000BA
:2025E000000000000000000000000A000000C0FF00C0FF0100C0010080010080010080010E
:2026000000C000C0FF01C0FF0100000000000000000000000000000000000000000000007A
:20262000000000000A400000C00100800F00007C0000E00100800100F000001E00C007004D
:20264000C0000000000000000000000000000000000000000000000000000000000010406A
:202660000000C00300801F0000FC0000C00100F001003F00C00300C00300003F0000F00155
:2026800000C00100F800801F00C001004000000000000000000000000B400001408001C014
:2026A000C101807300003E00001C00003F0080F300C0C00140800100000100000000000016
:2026C0000000000000000000000000000000000000000A400000C00118800F18003C1800DC
:2026E000F00F00C00300F000001E00C00700C0000000000000000000000000000000000083
:202700000000000000000000000000000A000001C0C001C0E001C0B001C09801C08C01C0B5
:202720008601C08101C080010080010000000000000000000000000000000000000000000E
:2027400000000000000007000000000800001C00F8F70FFCE31F040010040010000000002A
:20276000000000000000000000000000000000000000000000000000000000000000000059
:2027800003000000000000FFFF1F0000000000000000000000000000000000000000000019
:2027A0000000000000000000000000000000000000000000000000000000060400100400FB
:2027C00010FCE71FF8F70F001C0000080000000000000000000000000000000000000000C5
:2027E00000000000000000000000000000000000000000000B0000000010000008000004B2
:2028000000000400000400000800001000001000001800000C000000000000000000000064
:2028200000000000000000000000000000000A000000FCFF0104000104000104000104007F
:2028400001040001040001040001FCFF01000000000000000000000000000000000000006C
:202860000000000000000000042041651200000C0000000F0000E00F0000F80100003F003A
:2028800000C03F0000F83100003E3000000E3000001E300000FC300000F0370000803F0004
:2028A0000000FE000000F0070000C00F0000000E000000080000000000000000000000003E
:2028C0000000000000000000000000000000000000120000000000000000FEFF0F00FEFFDD
:2028E0000F00FEFF0F0006060C0006060C0006060C0006060C0006060C0006060C00060621
:202900000C0006060C000E0F0E00FC0F0F00FCFD0700F8F8030000F001000000000000006A
:20292000000000000000000000000000000000000000000000001300000000803F0000F0D5
:20294000FF0000F8FF01007CE003000E8007000600060007000E0003000C0003000C00034A
:20296000000C0003000C0003000C0007000E00060007001E8007003CF0030038F0000040CF
:202980003000000000000000000000000000000000000000000000000000001200000000F5
:2029A00000000000FEFF0F00FEFF0F00FEFF0F0006000C0006000C0006000C0006000C00AB
:2029C00006000C0006000C0006000E000C0006001C0007007CC00300F8FF0300F0FF000062
:2029E000C03F000000000000000000000000000000000000000000000000000000000000D8
:202A0000100000000000000000FEFF0F00FEFF0F00FEFF0F0006060C0006060C0006060C3A
:202A20000006060C0006060C0006060C0006060C0006060C0006060C0006060C0006000CDC
:202A4000000000000000000000000000000000000000000000000000000000000000000076
:202A600000000000000F0000000000000000FEFF0F00FEFF0F00FEFF0F000606000006060B
:202A80000000060600000606000006060000060600000606000006060000060600000600DC
:202AA000000000000000000000000000000000000000000000000000000000000000000016
:202AC000000000000000000000001300000000803F0000F0FF0000F8FF01007CE003001EC0
:202AE0008007000E00070007000E0003000C0003000C0003000C00030C0C00030C0C0007BB
:202B00000C0C00060C06000E0C07003C8C030038FC070030FC0F0000000000000000000023
:202B2000000000000000000000000000000000120000000000000000FEFF0F00FEFF0F006B
:202B4000FEFF0F00000600000006000000060000000600000006000000060000000600003F
:202B6000000600000006000000060000FEFF0F00FEFF0F00FEFF0F0000000000000000001F
:202B80000000000000000000000000000000000000000000050000000000000000FEFF0F24
:202BA00000FEFF0F00FEFF0F000000000000000000000000000000000000000000000000FD
:202BC0000000000000000000000000000000000000000000000000000000000000000000F5
:202BE000000000000000000000000000000000000000000000000000000C00E0010000E008
:202C0000070000E0070000000E0000000C0000000C0000000C0000000C0000000E00FEFF7D
:202C20000700FEFF0700FEFF0100000000000000000000000000000000000000000000008B
:202C4000000000000000000000000000000000000000000000000000000000000000120062
:202C600000000000000000FEFF0F00FEFF0F00FEFF0F00001C0000000E000000070000807F
:202C8000070000C00F0000E01E00007078000038F000001CE003000E80070006000F0006A1
:202CA000000E000200080000000000000000000000000000000000000000000000000000FC
:202CC0000000000F0000000000000000FEFF0F00FEFF0F00FEFF0F0000000C0000000C00A9
:202CE00000000C0000000C0000000C0000000C0000000C0000000C0000000C0000000C0074
:202D00000000000000000000000000000000000000000000000000000000000000000000B3
:202D20000000000000000000150000000000000000FEFF0F00FEFF0F001E000000FE00004A
:202D400000F0030000C01F0000007E000000F0030000C00F0000000E0000C00F0000F00391
:202D600000007E0000C01F0000F0030000FE0000001E000000FEFF0F00FEFF0F00000000CF
:202D800000000000000000000000000000110000000000000000FEFF0F00FEFF0F001E00EC
:202DA00000007C000000F0000000E003000080070000001F0000003C000000F8000000E00A
:202DC000010000C0070000000F00FEFF0F00FEFF0F00000000000000000000000000000004
:202DE0000000000000000000000000000000000000001400000000801F0000F0FF0000F839
:202E0000FF01007CE003001E8007000600060007000E0003000C0003000C0003000C00035D
:202E2000000C0003000C0007000E00060006001E8007007CE00300F8FF0100F0FF000080EB
:202E40001F0000000000000000000000000000000000000000000011000000000000000042
:202E6000FEFF0F00FEFF0F00FEFF0F00060C0000060C0000060C0000060C0000060C0000D4
:202E8000060C0000060C00000E0E00000E0E0000FC070000FC070000F001000000000000DF
:202EA0000000000000000000000000000000000000000000000000000000000014000000FE
:202EC00000801F0000F0FF0000F8FF01007CE003001E8007000600060007000E0003000C38
:202EE0000003000C0003000C0003800C0003C00D0007800F00060007001E0007007CE00F22
:202F000000F8FF1B00F0FF3800803F100000000000000000000000000000000000000000A9
:202F200000120000000000000000FEFF0F00FEFF0F00FEFF0F00060C0000060C0000060C25
:202F40000000060C0000060C0000060C0000060C0000060C0000060E00000E3F0000FCFFBB
:202F60000F00FCF30F00F0010C000000000000000000000000000000000000000000000047
:202F80000000000000001100000000F8E00000FCE10300FE8303008E0306008703060003BA
:202FA000070C0003070C0003070C0003060C0003060C00070E0C000E0E0E003E1C07003CC0
:202FC000FC070020F8030000F00100000000000000000000000000000000000000000000E2
:202FE00000000000000000000000000F0600000006000000060000000600000006000000A4
:2030000006000000FEFF0F00FEFF0F00FEFF0F00060000000600000006000000060000006E
:20302000060000000600000000000000000000000000000000000000000000000000000084
:2030400000000000000000000000000000000000120000000000000000FEFF0000FEFF0361
:2030600000FEFF0700000007000000060000000E0000000C0000000C0000000C0000000C01
:203080000000000C0000000E0000000700FEFF0700FEFF0300FEFF0000000000000000000E
:2030A00000000000000000000000000000000000000000000011020000001E000000FE00E1
:2030C0000000F8070000C03F000000FE000000F0070000800F0000000E0000C00F0000F899
:2030E0000300007F0000E00F0000FC0100007E0000000E00000002000000000000000000D4
:20310000000000000000000000000000000000000000000000000000000019020000003E56
:20312000000000FE010000F81F000000FF010000F00F0000000F0000C00F0000F803008021
:203140003F0000F80700007E0000000E000000FE000000F8070000807F000000F8070000AA
:20316000C00F0000000F0000F00F0000FF0000F81F0000FE0100001E00000002000000112C
:203180000200080006000C000E000F003E80070078E00300F0F00000C07B0000801F00001C
:2031A000001F0000803F0000E0F90000F0E001003CC007001E000F0006000E000200080039
:2031C0000000080000000000000000000000000000000000000000000000000000000000E7
:2031E0000000000011020000000E0000001E0000007C000000F0000000E0030000800700BA
:203200000000FF0F0000FC0F0000FE0F0080070000C0030000F00000007C0000001E0000B4
:20322000000E0000000200000000000000000000000000000000000000000000000000007E
:20324000000000000000000000100000000000000E0006000F0006C00F0006E00D0006F07D
:203260000C0006380C00061E0C00060F0C0086070C00C6010C00F6000C007E000C003E0071
:203280000C000E000C0006000C0000000000000000000000000000000000000000000000F6
:2032A0000000000000000000000000000000070000000000000000FFFFFF01FFFFFF010308
:2032C000008001030080010300800100000000000000000000000000000000000000000065
:2032E0000000000000000000000000000000000000000000000000000000000000000000CE
:203300000000000000000000000000000000000000000009030000001F000000780000000A
:20332000E0030000000F0000007C000000E0010000800F0000000C000000000000000000A3
:2033400000000000000000000000000000000000000000000000000000000000000000006D
:20336000000000000000000000000000000000000000000000000000050300800103008041
:203380000103008001FFFFFF01FFFFFF0100000000000000000000000000000000000000AC
:2033A00000000000000000000000000000000000000000000000000000000000000000000D
:2033C00000000000000000000000000000000000000000000000000000000000000F0000DE
:2033E00000000010000000180000001E000080030000E00000003C0000000E0000000E00CC
:2034000000003C000000F0000000C0030000000F0000001C00000010000000000000000082
:2034200000000000000000000000000000000000000000000000000000000000000000008C
:2034400000000D00004000000040000000400000004000000040000000400000004000009F
:203460000040000000400000004000000040000000400000004000000000000000000000CC
:2034800000000000000000000000000000000000000000000000000000000000000000002C
:2034A000000000000000000501000000030000000F0000000C0000000800000000000000E0
:2034C0000000000000000000000000000000000000000000000000000000000000000000EC
:2034E0000000000000000000000000000000000000000000000000000000000000000000CC
:203500000000000000000000000000000E0000000000C6030080E7070080610E00C0310C7A
:2035200000C0300C00C0100C00C0100C00C0100C00C0100600C019030080FF0F0000FF0FAD
:203540000000000C000000000000000000000000000000000000000000000000000000005F
:2035600000000000000000000000000000000000000F0000000000000000FEFF0F00FEFF33
:203580000F008003070080010600C0000C00C0000C00C0000C00C0000C00C0000C0080018E
:2035A00006008003070000FF030000FC00000000000000000000000000000000000000007D
:2035C000000000000000000000000000000000000000000000000D0000000000FC000000E2
:2035E000FF030080030700C0010E00C0000C00C0000C00C0000C00C0000C00C0010E0080F1
:2036000003070080870700008601000000000000000000000000000000000000000000000B
:203620000000000000000000000000000000000000000000000000000000000E000000007C
:2036400000FC000000FF03008003070080010600C0000C00C0000C00C0000C00C0000C002B
:20366000C0000C008001060000030700FEFF0F00FEFF0F00000000000000000000000000D5
:2036800000000000000000000000000000000000000000000000000000000000000000002A
:2036A0000E0000000000FC000000FF03008033070080310600C0300C00C0300C00C0300C99
:2036C00000C0300C00C0300C0080310E008033070000BF030000BC010000000000000000FA
:2036E0000000000000000000000000000000000000000000000000000000000000000000CA
:2037000000000000000800000000C0000000C0000000FCFF0F00FEFF0F00C6000000C6007F
:203720000000C60000000000000000000000000000000000000000000000000000000000C3
:20374000000000000000000000000000000000000000000000000000000000000000000069
:20376000000000000000000000000E0000000000FC400000FFC3018003870180018603C067
:20378000000C03C0000C03C0000C03C0000C03C0000C03800186010083E301C0FFFF00C0F1
:2037A000FF3F000000000000000000000000000000000000000000000000000000000000CB
:2037C0000000000000000000000000000000000D0000000000000000FEFF0F00FEFF0F00C4
:2037E0008003000080010000C0000000C0000000C0000000C0000000C001000080FF0F0076
:2038000000FF0F00000000000000000000000000000000000000000000000000000000009A
:203820000000000000000000000000000000000000000000040000000000000000CEFF0FA8
:2038400000CEFF0F000000000000000000000000000000000000000000000000000000008C
:20386000000000000000000000000000000000000000000000000000000000000000000048
:203880000000000000000000000000000000000000000000000000000004000080010000A3
:2038A0008001CEFFFF01CEFFFF0000000000000000000000000000000000000000000000EE
:2038C0000000000000000000000000000000000000000000000000000000000000000000E8
:2038E0000000000000000000000000000000000000000000000000000000000000000E00BA
:2039000000000000000000FEFF0F00FEFF0F000030000000180000001C0000007E000000AD
:20392000F7000080C30300C0810700C0000E0040000C0000000800000000000000000000E0
:20394000000000000000000000000000000000000000000000000000000000000000000067
:20396000000000040000000000000000FEFF0F00FEFF0F000000000000000000000000002B
:20398000000000000000000000000000000000000000000000000000000000000000000027
:2039A000000000000000000000000000000000000000000000000000000000000000000007
:2039C0000000000000000000140000000000000000C0FF0F00C0FF0F0000030000800100B3
:2039E00000C0000000C0000000C0000000C001000080FF0F0000FF0F008001000080000029
:203A000000C0000000C0000000C0000000C001000080FF0F0000FF0F000000000000000009
:203A2000000000000000000000000000000D0000000000000000C0FF0F00C0FF0F000003DA
:203A4000000080010000C0000000C0000000C0000000C0000000C001000080FF0F0000FF97
:203A60000F0000000000000000000000000000000000000000000000000000000000000037
:203A80000000000000000000000000000000000000000F0000000000FC000000FF03008099
:203AA00087070080010600C0010E00C0000C00C0000C00C0000C00C0000C00C0010E0080A3
:203AC0000106008087070000FF030000FC00000000000000000000000000000000000000D3
:203AE00000000000000000000000000000000000000000000000000F0000000000000000B7
:203B0000C0FFFF01C0FFFF018003030080010600C0000C00C0000C00C0000C00C0000C00EA
:203B2000C0000C00800106008003070000FF030000FC0000000000000000000000000000AA
:203B4000000000000000000000000000000000000000000000000000000000000E00000057
:203B60000000FC000000FF03008003070080010600C0000C00C0000C00C0000C00C0000C06
:203B800000C0000C008001060000030700C0FFFF01C0FFFF0100000000000000000000004A
:203BA000000000000000000000000000000000000000000000000000000000000000000005
:203BC00000090000000000000000C0FF0F00C0FF0F000007000080010000C0000000C00038
:203BE0000000C0000000000000000000000000000000000000000000000000000000000005
:203C00000000000000000000000000000000000000000000000000000000000000000000A4
:203C20000000000000000C00000000008F0100808F0700C0190600C0180C00C0300C00C053
:203C4000300C00C0300C00C0300C00C061060080E3070000C30300000000000000000000D9
:203C6000000000000000000000000000000000000000000000000000000000000000000044
:203C800000000000000000000000000800000000C0000000C0000000FCFF0700FCFF0F0090
:203CA000C0000C00C0000C00C0000C000000000000000000000000000000000000000000A0
:203CC0000000000000000000000000000000000000000000000000000000000000000000E4
:203CE000000000000000000000000000000000000D0000000000000000C0FF0300C0FF072F
:203D00000000000E0000000C0000000C0000000C0000000C000000060000000300C0FF0F8E
:203D200000C0FF0F00000000000000000000000000000000000000000000000000000000B5
:203D40000000000000000000000000000000000000000000000D40000000C0010000C00F86
:203D60000000003F000000F8010000C00F0000000E0000000F0000E0070000FC0000801F9D
:203D80000000C0030000C000000000000000000000000000000000000000000000000000A0
:203DA00000000000000000000000000000000000000000000000000000001440000000C0EF
:203DC000010000C00F000000FF000000F8070000800F0000000F0000F00F0000FF0000C0B9
:203DE0000F0000C0030000C03F000000FC030000C00F0000000E0000C00F0000FC0100C08A
:203E00003F0000C0070000C000000000000000000000000000000000000000000000000ECE
:203E20000000080040000C00C0010E00C083070080C7030000FE0000007C0000007C0000D5
:203E400000EE010080C70300C0830F00C0000E0040000C00000008000000000000000000B5
:203E6000000000000000000000000000000000000000000000000000000000000000000042
:203E8000000000000D40000000C0010000C00F0003003F000300F8810300C0EF010000FED6
:203EA0000000001F0000E0070000FC0000801F0000C0070000C000000000000000000000DA
:203EC0000000000000000000000000000000000000000000000000000000000000000000E2
:203EE0000000000000000000000C00000000C0000E00C0000F00C0800F00C0E00D00C070ED
:203F00000C00C0380C00C01C0C00C00E0C00C0070C00C0010C00C0000C0000000000000063
:203F2000000000000000000000000000000000000000000000000000000000000000000081
:203F4000000000000000000000000000000000000000000000000000F8FF7F00000000C02B
:203F6000FFFFFF0F000000F8FFFFFF7F000000FFFFFFFFFF030080FFFFFFFFFF0700E0FF62
:203F8000FFFFFFFF1F00F0FFFFFFFFFF3F00F0FF070080FF7F00F83F000000F07F00FC0F37
:203FA000000000C0FF00FC0300000000FF00FE0100000000FE01FE0000000000FC017E00CD
:203FC00000000000F8017F0000000000F8033F0000000000F0033F0000000000F0033F00CB
:203FE00000000000F0033F0000000000F0033F0000000000F0033F0000000000F0033F00F9
:2040000000000000F0033F0000000000F0037F0000000000F8037E0000000000F801FE008C
:2040200000000000FC01FE0100000000FE01FC0300000000FF00FC0F000000C0FF00F83F86
:20404000000000F07F00F0FF070080FF7F00F0FFFFFFFFFF3F00E0FFFFFFFFFF1F0080FF5A
:20406000FFFFFFFF070000FFFFFFFFFF030000F8FFFFFFFF000000C0FFFFFF0F000000007F
:20408000F8FF7F0000000000000000000000000000000000000000000000000000000000AA
:2040A0000000000000000000000000000000000000000000000000F800000000000000F810
:2040C00000000000000000F800000000000000F800000000000000F800000000000000F800
:2040E00000000000000000FC00000000000000FC00000000000000FC00000000000000FECE
:2041000000000000000000FE00000000000000FF00000000000000FF00000000000080FF24
:20412000000000000000C0FF000000000000F0FFFFFFFFFFFF01FEFFFFFFFFFFFF01FFFFDE
:20414000FFFFFFFFFF01FFFFFFFFFFFFFF01FFFFFFFFFFFFFF01FFFFFFFFFFFFFF01FFFF77
:20416000FFFFFFFFFF01000000000000000000000000000000000000000000000000000043
:2041800000000000000000000000000000000000000000000000000000000000000000001F
:2041A0000000000000000000000000000000000000000000000000000000000000000000FF
:2041C0000000000000000000000000000000000000000000F80100C00F000000FF0100FC1B
:2041E0000F0000C0FF0100FF0F0000F0FF0180FF0F0000F8FF01C0FF0F0000FEFF01E0FFC1
:204200000F0000FFFF01F0FF0F0080FFFF01F87F000080FFF901FC0F0000C07FF801FC03E1
:204220000000E03FF801FE010000F01FF801FE000000F00FF801FE000000F807F8017F00F4
:204240000000FC03F8017F000000FC01F8013F000000FE00F8013F000000FF00F8013F0045
:2042600000007F00F8013F0000803F00F8013F0000C03F00F8013F0000C01F00F8013F0042
:2042800000E01F00F8017F0000F00F00F8017E0000F80700F801FE0000F80700F801FE0144
:2042A00000FC0300F801FC0300FF0100F801FC0780FF0000F801F81FF0FF0000F801F8FF9D
:2042C000FF7F0000F801F0FFFF3F0000F801E0FFFF1F0000F801C0FFFF070000F80180FF0E
:2042E000FF030000F80100FEFF000000F80100F01F000000000000000000000000000000BE
:20430000000000000000000000000000000000000000001F000000C0030000FF000000F8C4
:20432000030000FF030000FF030000FF070080FF030000FF1F00E0FF030000FF3F00F0FFC1
:20434000030000FF3F00F0FF030000F87F00F83F000000C0FF00FC0F00000000FF00FC03B4
:2043600000000000FE01FE0100000000FC01FE0000000000FC017E0000000000F8017F0051
:2043800000000000F8037F0000000000F0033F00003E0000F0033F00003E0000F0033F0091
:2043A000003E0000F0033F00003E0000F0033F00003E0000F0033F00003E0000F0033F003D
:2043C000003E0000F0037F00003F0000F8037E00007F0000F8037E00807F0000F801FE0087
:2043E000807F0000FC01FE01C0FF0000FC01FC03E0FF0000FE00FC0FF8FB0100FF00F8FF35
:20440000FFF307C07F00F8FFFFF11FF07F00F0FFFFF1FFFF3F00E0FFFFE0FFFF1F0080FF79
:204420003FC0FFFF0F0000FF1F80FFFF070000F80700FFFF030000000000FCFF00000000D2
:204440000000E01F0000000000000000000000000000E00F000000000000F80F0000000067
:204460000000FC0F000000000000FF0F000000000080FF0F0000000000C0FF0F00000000C7
:2044800000F0DF0F0000000000F8CF0F0000000000FEC30F0000000000FFC10F00000000C9
:2044A000C07FC00F00000000E03FC00F00000000F80FC00F00000000FC07C00F0000000058
:2044C000FE01C00F00000080FF00C00F000000C03F00C00F000000F01F00C00F000000F81C
:2044E0000700C00F000000FE0300C00F000000FF0000C00F0000C07F0000C00F0000E01F3B
:204500000000C00F0000F80F0000C00F0000FC030000C00F0000FEFFFFFFFFFFFF01FFFF31
:20452000FFFFFFFFFF01FFFFFFFFFFFFFF01FFFFFFFFFFFFFF01FFFFFFFFFFFFFF01FFFF93
:20454000FFFFFFFFFF0100000000C00F000000000000C00F000000000000C00F00000000F2
:204560000000C00F000000000000C00F000000000000C00F000000000000C00F00000000FF
:204580000000C00F00000000000000000000000000000000000000000000003C0000000010
:2045A000000000FC01000000007800FC07000000E07F00FC0F000080FF7F00FC1F0000FC04
:2045C000FF7F00FC3F00F0FFFF7F00FC7F00FEFFFF7F00F07F00FEFFFF7F0080FF00FEFF59
:2045E000873F0000FF00FE3F801F0000FE01FE00C00F0000FC017E00E0070000F8017E0075
:20460000E0070000F8037E00E0030000F8037E00F0030000F0037E00F0030000F0037E0016
:20462000F0030000F0037E00F0030000F0037E00F0030000F0037E00F0030000F0037E00EA
:20464000F0030000F0037E00F0070000F8037E00F0070000F8017E00E00F0000FC017E00AE
:20466000E00F0000FC017E00E01F0000FE007E00C07F0000FF007E00C0FF00C07F007E001D
:2046800080FF07F87F007E0000FFFFFF3F007E0000FEFFFF1F007E0000FCFFFF0F007E00C5
:2046A00000F8FFFF07007E0000F0FFFF010000000080FF7F000000000000FC0F0000000087
:2046C00000000000000000000000000000000000000000000000000080FF7F0000000000DC
:2046E000FEFFFF0F000000C0FFFFFF7F000000F8FFFFFFFF010000FEFFFFFFFF070000FF7E
:20470000FFFFFFFF0F0080FFFFFFFFFF1F00E0FF3FF0FFFF3F00F0FF01FC0FF87F00F03F08
:2047200000FE01C0FF00F80F007F0000FF00FC07003F0000FE01FC01801F0000FC01FE005E
:20474000801F0000FC01FE00C00F0000F8037E00C00F0000F8037F00E0070000F0033F0015
:20476000E0070000F0033F00E0070000F0033F00E0070000F0033F00E0070000F0033F00D5
:20478000E0070000F0033F00E0070000F0033F00E00F0000F8037F00E00F0000F8017F0017
:2047A000E00F0000F801FE00C01F0000FC01FE00C03F0000FE01FE01807F0000FF00FC073B
:2047C00080FF01C07F00FC3F00FF07F07F00F83F00FFFFFF3F00F03F00FEFFFF1F00E03F8E
:2047E00000FCFFFF0F00C03F00F8FFFF0700003F00E0FFFF010000380080FF7F0000000060
:204800000000FC0F00000000000000000000000000000000000000000000000000007E000F
:204820000000000000007E000000000000007E000000000000007E000000000000007E0080
:204840000000000000007E000000000000007E000000000000007E0000000000F0017E006F
:2048600000000080FF017E00000000F8FF017E00000080FFFF017E000000E0FFFF017E006A
:204880000000FCFFFF017E000000FFFFFF017E0000C0FFFFFF017E0000F8FFFF0F007E0064
:2048A00000FCFF3F00007E0000FFFF0300007E00C0FF7F0000007E00F0FF0F0000007E0089
:2048C000F8FF010000007E00FE7F000000007E00FF0F000000007E80FF03000000007EE0FB
:2048E000FF00000000007EF03F00000000007EF81F00000000007EFC0700000000007EFF79
:20490000010000000000FEFF000000000000FE3F000000000000FE1F000000000000FE0F32
:20492000000000000000FE03000000000000FE01000000000000FE000000000000007E00FB
:204940000000000000000000000000000000000000000000000000000000F01F0000000048
:204960000000FCFF000000F80300FFFF030000FF1F80FFFF0F00C0FF3FC0FFFF1F00E0FFDB
:204980007FE0FFFF3F00F0FFFFF0FFFF3F00F8FFFFF93FE07F00F8FFFFFB0780FF00FC0F51
:2049A000FCFB0300FF00FC03F0FF0100FE01FE01E0FF0000FC01FE00C0FF0000FC017E00FD
:2049C000807F0000F8017F00807F0000F8033F00803F0000F0033F00003F0000F0033F00C5
:2049E000003F0000F0033F00003F0000F0033F00003F0000F0033F00003F0000F0033F00F3
:204A0000003F0000F0033F00003F0000F0037F00807F0000F8037E00807F0000F801FE0006
:204A2000C0FF0000FC01FE00E0FF0000FC01FC03F0FF0100FE01FC07FCFB0300FF00F8FFFF
:204A4000FFFB0F80FF00F8FFFFF93FF07F00F0FFFFF0FFFF3F00E0FF7FE0FFFF3F00C0FFDC
:204A60003FE0FFFF1F0000FF1FC0FFFF070000F80300FFFF030000000000FEFF000000001E
:204A80000000F01F00000000000000000000000000000000000000C0FF000000000000F850
:204AA000FF0F0038000000FEFF3F00F8010080FFFF7F00F80700C0FFFFFF01F80F00E0FFDB
:204AC000FFFF03F83F00F0FFFFFF03F83F00F87F80FF07F87F00F80F00FC0FC0FF00FC0333
:204AE00000F80F00FF00FC0100E01F00FE01FE0000C01F00FC017E0000C01F00F8017E0007
:204B000000803F00F8037F0000803F00F8033F0000003F00F0033F0000003F00F0033F0081
:204B200000003F00F0033F0000003F00F0033F0000003F00F0033F0000003F00F0033F00B1
:204B400000003F00F0037F0000801F00F8037E0000801F00F801FE0000C00F00FC01FE002C
:204B600000E00F00FE01FE0100E00700FF00FC0700F80380FF00FC0F00FC01E07F00F87F07
:204B800080FF00FC3F00F0FFFF7FE0FF3F00E0FFFFFFFFFF1F00C0FFFFFFFFFF070080FF95
:204BA000FFFFFFFF030000FEFFFFFFFF000000F8FFFFFF1F000000C0FFFFFF030000000028
:204BC000F8FF0F0000000000000000000000160353007000650063006B00200057006900E0
:204BE000660069000000160343005200450041005400450020004C006100620000000403E3
:204C0000090409026600030100C0FA09040200020300000009211101000122200007058138
:204C20000308000507050203080005080B00020202010009040000010202010005240010E0
:204C400001042402060524060001070582030800FF09040100020A0000000705040210001F
:204C6000050705830210000512011001EF0201085423333301000102DC010600FF0901A1FD
:204C8000010902150025FF7508951081020903150025FF750895109102C0EEE0FEE485EC4F
:204CA0009FE501C08193EF3FF907E0F3D9F311241FBECFEFCDBFDFE5DEBF00E00CBF1BE368
:204CC000A0E0B0E2E8E0F3E301E00BBF02C007900D92A633B107D9F72EE4A6E3BBE301C026
:204CE0001D92AE30B207E1F70E9445820C9482990C9400009091A10995FFFCCF8093A009EC
:204D000080E090E00895E0E6F6E088E0818384E082838093B00088E1808BE0EAF9E083E078
:204D2000858389E18683178284818061848384818860848383818063838308954091553C92
:204D40005091563C2091573C3091583C81E04217530709F480E0089581110CC02091573C97
:204D60003091583C8091553C9091563C2817390729F421C0E3DF8823E9F3F0CFE091573C00
:204D8000F091583CE055FA4B80812091573C3091583C2F5F3F4F2093573C3093583C209180
:204DA000573C3091583C2431310530F01092573C1092583C08958FEF08951F920F920FB626
:204DC0000F9211240BB60F928F939F93EF93FF93E091553CF091563C8091A009E055FA4BEA
:204DE00080838091553C9091563C01968093553C9093563C8091553C9091563C449720F02B
:204E00001092553C1092563CFF91EF919F918F910F900BBE0F900FBE0F901F901895E0E438
:204E2000F6E088E0818384E082838093B00088E1808BE0EAF8E083E0858389E18683178277
:204E400084818061848384818860848383818063838308959091A10895FFFCCF8093A00803
:204E600080E090E008951F93CF93DF93EC0110E0812F90E0FE0101900020E9F73197EC1BE3
:204E8000FD0B8E179F0748F4FE01E80FF91F60E070E08081DFDF1F5FEBCFDF91CF911F916E
:204EA00008951F920F920FB60F9211240BB60F928F939F93EF93FF93E091513CF091523C91
:204EC0008091A008E955F34C80838091513C9091523C01968093513C9093523C8091513CC6
:204EE0009091523C4E9720F01092513C1092523CFF91EF919F918F910F900BBE0F900FBE7B
:204F00000F901F901895EEE0FEE4CF018E509E442081253C39F42FE5EF3FF20709F010F4EF
:204F20003196F3CF08958091CF0187FDFCCF0895FADF8091CF0181FF19C08AE390E29F935A
:204F40008F930E94B39686E38093CA01EF93FF930F932F93EBECF1E008ED21E004BF208381
:204F60002F910F91FF91EF910F900F900895CF93DF93EC01C11588E0D807D8F4D4DFC09336
:204F8000C001D093C1011092C20186E08093CA01EF93FF930F932F93EBECF1E008ED21E06C
:204FA00004BF20832F910F91FF91EF918091C40101C080E0DF91CF9108950F931F93CF9301
:204FC000DF931F92CDB7DEB78C01011588E01807F8F46983ADDF83E38093CA010093C0016F
:204FE0001093C1011092C20169816093C40185E38093CA01EF93FF930F932F93EBECF1E0DF
:2050000008ED21E004BF20832F910F91FF91EF910F90DF91CF911F910F910895E0E8F6E0CA
:2050200080EB8183858308958093C30A8091C20A87FFFCCF08951092C30A8091C20A87FFDF
:20504000FCCF8091C30A08950F931F93CF93DF9380E18093860683E0E7DF80E0E5DF80E035
:20506000E3DFE9DFC82FD0E0DC2FCC27E4DF9E01280F311DC901215031092F3F310558F4B5
:20508000CFE7D9E48C010158164BD5DF8993C017D107D9F703C080E090E002C081E090E0E1
:2050A000DF91CF911F910F9108951F93CF93DF931F921F92CDB7DEB7182F862F79839A831D
:2050C000B3DF7981872FB0DF812FAEDF9A81892F0F900F90DF91CF911F91A6CFCF93DF93E8
:2050E0001F92CDB7DEB799839FDF9981892F0F90DF91CF9199CF80917F49823009F456C005
:20510000843009F057C08091814990E0982F882720918049820F911D823020E8920719F1F4
:2051200048F4811521E4920771F0813020E89207B1F00895803120E89207D1F0803820E83B
:20514000920749F008954091844920917649E8E8F9E430E021C021E020934F3C089521E057
:2051600020934E3C089510924E3C10924D3C089520918749209319462091864920931A463B
:205180002091854920931B462091844920931C4621E020934D3C0895341729F050813F5F3C
:2051A0003296250FF9CF2093764908958091804990E0089580E090E0089546DF9CDF20E127
:2051C000E0E8F6E025830895E0E8F6E084E082838093B0008AE1808B88E0818386831ECF4A
:2051E00094E09093B000E0E8F6E08AE1808B81E08187928780934C3C0895882311F080E08E
:2052000013DF80E1809385068091503C882319F01092503CE5CF08958091C243EECF8091E9
:20522000C243EBCF84E08093B000E0E8F6E088E1808B1186128610924C3C0895F3DF88E046
:20524000E0E8F6E086830895E0E8F6E0808582FB882780F90895F2DF2FEF8BE49DE12150D8
:2052600080409040E1F700C00000EEDF8130E9F70895CF92DF92EF92FF921F93CF93DF93A1
:20528000EC019C012B5F3F4F122F117020FD219680914C3C882321F081E08093503CC2DFE0
:2052A00080E18093860630E8C32E36E9D32E38E9E32EF12CC9DF813079F480E18A95F1F748
:2052C00081E0C81AD108E108F108C114D104E104F10481F78FEF0BC081E0A6DE8D2FA4DE68
:2052E0008C2FA2DE80E0A0DE80E09EDE812FDF91CF911F91FF90EF90DF90CF9008950F936E
:205300001F93CF93DF931F92CDB7DEB78C01862F90E004966983ADDF8093C24381E084DE9E
:20532000802F82DE812F80DE6981862F7DDE8091C2430F90DF91CF911F910F910895EF9263
:20534000FF921F93CF93DF931F92CDB7DEB7182F7A01E60EF11CC701059669838ADF8093DE
:20536000C24382E061DE812F5FDE6981862F5CDE8E2D5ADE8F2D58DE8091C2430F90DF91B7
:20538000CF911F91FF90EF900895CF92DF92EF92FF920F931F93CF93DF93C82ED92FC62F53
:2053A0007A01062F10E0C801049663DFD82E81E03BDE8C2D39DE8D2F37DE8C2F35DEC111E7
:2053C0000AC08D2DDF91CF911F910F91FF90EF90DF90CF9012CFE7019E012E193F0920171F
:2053E000310778F7899120DEF7CFCF92DF92EF92FF920F931F93CF93DF93EC0100914C3C16
:20540000011110DF10E0C12CD12C76011DDF882391F080E18A95F1F78FEFC81AD80AE80A76
:20542000F80A80E8C81686E9D80688E9E806F10469F78FEF18C0C1DE1F5F1B3088F4209732
:2054400019F08C179D0711F710918349259721F49091844990930446002321F0C1DE02C0C6
:205460008EEF01C0812FDF91CF911F910F91FF90EF90DF90CF9008950F931F93CF93DF937D
:20548000EC018B0140E050E060E087E092E07DDF87E092E0AADF8091834990918649988384
:2054A00090918749F8019083DF91CF911F910F910895EF92FF920F931F93CF93DF931F9247
:2054C0001F92CDB7DEB7082F162F7A016CE081E092E029833A8313DF602F70E080E090E0E2
:2054E000E4DD612F70E080E090E0DFDDB70180E090E0DBDD91DE81E092E077DF182F81E9F6
:2055000090E073DF29813A81811120C0609181494091824950E070E0461B570BE09183491B
:20552000F0E0FE2FEE274E0F5F1F822FF9016158764B2E2F281B30E02417350738F4DB012A
:20554000A20FB31F15969C919193F3CF812F0F900F90DF91CF911F910F91FF90EF90089551
:205560009C0140E050E066E086E0A3CFCF93DF93EC0160E089E090E0C2DE4EDE89E090E0A1
:2055800034DF909184499883DF91CF910895CF93DF93EC0164E087E090E0B1DE60E070E087
:2055A000CB0183DD39DE87E090E01FDF90918449988390918849998390918C4990FF03C074
:2055C00091E09A8301C01A8290918C4996959B8390918D4993709C8390918D49969596953B
:2055E00020E030E0FE01E20FF31F291738F4D901A158B64B51964C91458301C015822F5FE7
:205600003F4F2032310571F7EFE7F9E411929AE4E937F907D9F7DF91CF9108950F931F9387
:20562000CF93DF93EC018B018130910551F088EE93E09E01289FE001299FD00D389FD00D0C
:20564000112464E683E090E05ADE64E270E080E090E02BDDBE0180E090E027DD64E670E025
:2056600080E090E022DD64E670E080E090E01DDD65E070E080E090E018DDB80180E090E014
:2056800014DD60EB7FEF8FEF9FEF0FDD60E070E0CB010BDD6DEC70E080E090E006DDC0E127
:2056A00060ED77E080E090E000DDC150C9F7B4DD83E090E0DF91CF911F910F9196CE2F921F
:2056C0003F924F925F926F927F928F929F92AF92BF92CF92DF92EF92FF920F931F93CF9397
:2056E000DF9300D0CDB7DEB78A839B83762F8A016901FC0101900020E9F73197E81BF90B2D
:205700003E2EDA010D900020E9F71197A41BB50B8E2E912CA12CB12C611149C068E16E0F1A
:2057200085E090E0ECDD60E070E0CB01BEDC64E170E080E090E0B9DCC501B401B6DC80E06E
:2057400090E0CCDC80E090E0C9DC60E070E0CB01ACDC60E070E0CB01A8DCFA800F2D1B81A6
:20576000802F8F19831528F4F80181918F015CDCF7CF52DD85E090E038DE90910446F60109
:2057800090832396CDBFDEBFDF91CF911F910F91FF90EF90DF90CF90BF90AF909F908F903C
:2057A0007F906F905F904F903F902F9008952A2EAE0F7F01FF24422C512C612C712C613084
:2057C00009F047C064E26A0F85E090E098DD61E070E080E090E069DC60E270E080E090E0B8
:2057E00064DCC501B40161DC80E090E077DC80E090E074DC60E070E0CB0157DC60E070E04F
:20580000CB0153DCB701645F7F4F882777FD8095982F4BDCC301B20148DC60E070E0CB0127
:2058200044DCBA80EB2CFB808E2D8B19831528F4F70181917F01F8DBF7CFF02E58018A2D18
:205840008F19821508F095CFF50181915F01ECDBF6CF6CE26A0F85E090E0798350DD7981FA
:20586000672F70E080E090E020DC68E270E080E090E01BDCC501B40118DC80E090E02EDCCC
:2058800080E090E02BDC60E070E0CB010EDC60E070E0CB010ADC68E170E080E090E005DC5F
:2058A0006EE170E080E090E000DC62E070E080E090E0FBDBB701685F7F4F882777FD8095E0
:2058C000982FF3DBC301B201F0DBBA80EB2CFB808E2D8B19831528F4F70181917F01A4DB09
:2058E000F7CFF02E58018A2D8F19821508F041CFF50181915F0198DBF6CF0F931F93CF9317
:20590000DF931F92CDB7DEB7182F062F6CE084E090E04983F4DC602F70E080E090E0C5DBC4
:20592000612F70E080E090E0C0DB4981642F70E080E090E0BADB70DC84E090E00F90DF91DB
:20594000CF911F910F9151CDCF93C82F64E086E090E0D5DC6C2F70E080E090E0A6DB5CDCE1
:2059600086E090E0CF9141CDCF92DF92EF92FF920F931F93CF93DF937C018B01FC01019040
:205980000020E9F73197E81BF90BDE2E86EE8E1768F168E06E0F80E190E1B1DC68E070E0FE
:2059A00080E090E082DB6D2D70E080E090E07DDBCE2CCE2DDF2D8C2F8C198D1518F489917F
:2059C00033DBF9CF29DC80E190E10FDD8091844990918B49F801908390918A499183909126
:2059E0008949928390918849938301C08FEFDF91CF911F910F91FF90EF90DF90CF900895E0
:205A00000F931F93CF93DF931F92CDB7DEB7082F162F6CE081E090E1498371DC602F70E002
:205A200080E090E042DB612F70E080E090E03DDB4981642F70E080E090E037DBEDDB81E0F9
:205A400090E10F90DF91CF911F910F91CECCEF92FF921F93CF93DF9300D01F92CDB7DEB74A
:205A6000182F7B0164E187E090E129833A834B835C8345DC612F70E080E090E016DB68E026
:205A800070E080E090E011DB68E070E080E090E00CDB82E090E022DB9E2D8F2D1FDB2981B1
:205AA0003A814B815C81CA01B901FFDAB5DB87E090E12496CDBFDEBFDF91CF911F91FF90CA
:205AC000EF9093CCCF93C82F64E08BE090E117DC6C2F70E080E090E0E8DA9EDB8BE090E1AA
:205AE000CF9183CC0F931F93CF93DF93EC018B0140E050E060E08BE090E447DC8BE090E4E5
:205B000074DC80918349EFE7F9E495819883268130E0F80120833183DF91CF911F910F914D
:205B20000895CF92DF92EF92FF920F931F93CF93DF93D82E8B01EA01C22EE12CF12C909104
:205B40007649911116C06DEC73E486E799E4CADF8FED9EE20197F1F700C000009FEFE91AFE
:205B6000F90A80E1E81687E2F80649F780E090E02FC0915090937649AE0160E181E8DFDB87
:205B80006D2D70E080E090E090DA6CE070E080E090E08BDABE0180E090E087DA6C2D70E037
:205BA00080E090E082DA209731F439DB83E090E11CDCCE010DC0F12C8F2D90E08C179D07D1
:205BC000A0F7F801E80FF91F80812EDAF394F4CFDF91CF911F910F91FF90EF90DF90CF90D7
:205BE0000895DF92EF92FF920F931F93CF93DF93E82E8B01EA01D22EF0904C3CF11012DBDA
:205C00006CE084E090E17BDB6E2D70E080E090E04CDABE0180E090E048DA6D2D70E080E031
:205C200090E043DAF9DA84E090E1DFDBE0908849E11004C0FF2071F1D3DA2CC085E890E088
:205C4000D4DB6091814970E02091824930E0261B370B4091834950E0542F4427240F351F39
:205C6000C217D30728F040E050E06158764B05C0F110B6DACE0101960FC042175307D1F28E
:205C8000FB01E40FF51F8581F80181938F014F5F5F4FF3CF8E2D90E0DF91CF911F910F91F5
:205CA000FF90EF90DF9008951F93CF93DF93182F10924F3C10924E3C10924D3CBFDA2FEFC2
:205CC0008BE49DE1215080409040E1F700C00000C9E8D3E1B9DA813051F08FED9EE20197C0
:205CE000F1F700C0000021972097A1F762C088E080938506C9E8D3E1A7DA882351F08FED7F
:205D00009EE20197F1F700C0000021972097A1F750C080E18093860687E592E00197F1F74E
:205D200000C0000081E080D980E07ED985E07CD980E07AD987E592E00197F1F700C00000A7
:205D400080E072D981E070D980E06ED980E46CD981E06AD9812F68D980E180938506C9E859
:205D6000D3E172DA882351F08FED9EE20197F1F700C0000021972097A1F71BC01EDAC9E870
:205D8000D3E162DA813051F08FED9EE20197F1F700C0000021972097A1F70BC021DA6DECBF
:205DA00073E486E799E49EDE81E090917649911101C080E0DF91CF911F9108951F93CF93F1
:205DC000DF93CDB7DEB76297CDBFDEBF182F28E430E23F932F930E94B396F6D984E58093E7
:205DE000C00A80E061DF89870F900F90882309F473C027E530E23F932F930E94B396BE01B4
:205E00006F5E7F4FCE01429637DB89891F928F938A891F928F932BE630E23F932F930E940A
:205E2000B396CDBFDEBF8989883109F04BC09A89913009F047C09A8729E830E23F932F9365
:205E40000E94B396CE010B968BDB88891F928F938F851F928F938E851F928F938D851F920D
:205E60008F938C851F928F938B851F928F932DE930E23F932F930E94B396CDBFDEBF112335
:205E8000B1F088EC90E29F938F930E94B39640E060E080E032DD8BEE90E29F938F930E948C
:205EA000B3966FEF7FE18CE390E0B8DB22C08BEF90E29F938F930E94B39641E060E080E09B
:205EC0001CDD07C01A8686E291E29F938F930E94B3960F900F9011C08CE391E29F938F9303
:205EE0000E94B39686E291E29F938F930E94B3961A860F900F900F900F9088E0FE0139964B
:205F0000DE01119601900D928A95E1F729813A814B815C816D817E818F8198856296CDBF28
:205F2000DEBFDF91CF911F910895FF920F931F93CF93DF93082FEB01F42E10E0212F30E059
:205F4000FE0101900020E9F73197EC1BFD0B2E173F07D8F480914B3CFE01E20FF31F9081D8
:205F6000E82FF0E0E055F84B90831F5F8F5F80934B3C843619F710924B3C20E044E650E05C
:205F800060EB77E4802FCDDDD9CFFF2051F040914B3C50E020E060EB77E4802FC2DD1092DC
:205FA0004B3C80E090E0DF91CF911F910F91FF9008952F923F924F925F926F927F928F92A7
:205FC0009F92AF92BF92CF92DF92EF92FF920F931F93CF93DF93CDB7DEB7E997CDBFDEBF30
:205FE0008FA298A6A9A6BAA6CBA6DCA6EDA6FEA60FA718AB29AB3AAB4BAB5CAB6DAB7EABE9
:206000008FAB98AF6196CEACDFAC619769968FAC69976A969FAC6A974BA45CA46DA47EA463
:20602000E8A8F9A8F60101900020E9F7AF01415051094C195D098E010F5F1F4FB601C80156
:206040000E943196F60101900020E9F73197EC19FD09E00FF11F1082C7016AE070E00E94E7
:206060004294F7FE05C0AA24BB24A81AB90A01C05C0110924B3CF80101900020E9F73197C5
:20608000E01BF10B30E020E0832F90E08E179F0748F4D801A80FB91F8C918E3209F42F5F80
:2060A0003F5FF2CF233031F56CE771E3C8010E942E960E94E3958F8F6CE771E380E090E083
:2060C0000E942E960E94E39588A36CE771E380E090E00E942E960E94E39589A36CE771E34B
:2060E00080E090E00E942E960E94E3958AA31092144807C0BE01615E7F4FC80135DC809325
:2061000014488091144887FF0AC082E591E29F938F930E94B3960F900F9011E046C146E0F1
:2061200061E082E06DDCD82E80933B4663968EAD9FAD63970E94E3952F8D38A149A15AA1CB
:20614000BC018D2D84DC8093754981111FC140E066E671E280913B46E8DE40E065966EADD8
:206160007FAD659780913B46E0DE40E06BE671E280913B46DADE40E067E771E280913B4646
:20618000D4DE40E067ED71E280913B46CEDE40E0B80180913B46C9DE40E06FE372E280915F
:2061A0003B46C3DE40E06EED71E280913B46BDDE66968FAD66978130A1F440E06EEF71E277
:2061C00080913B46B2DE40E068966EAD7FAD689780913B46AADE40E06FE372E280913B46C7
:2061E000A4DE40E06AE072E280913B469EDE640120E198E1892E92E2992E3BE3232E3EE3F0
:20620000332EF60181916F011F928F939F928F920BE31EE33F922F9229AF0E94C99640E005
:20622000B80180913B4681DE29AD21500F900F900F900F900F900F9021F740E06FE372E2D5
:2062400080913B4672DE1F926B968FAD6B978F938DE192E29F938F931F930F930E94C996BF
:2062600040E0B80180913B4660DE40E06AE272E280913B465ADE40E062E472E280913B469F
:2062800054DEC301B2012AE030E040E050E00E9477949F938F937F936F935F934F933F9330
:2062A0002F938AA58F9389A58F9388A58F938FA18F938FA98F938EA98F93BF92AF92C701CD
:2062C0006AE070E00E9442947F936F938FA51F928F938DA98F938CA98F938BA98F938AA959
:2062E0008F9389EB92E29F938F931F930F930E94C996CDBFDEBF40E0B80180913B4615DE64
:2063000041E065EE72E280913B460FDE20E04CE050E0B80180913B4664DC8FEE92E29F932C
:206320008F930E94B3960F900F90F80181918F0190E00E94C496FEE307341F07B1F78DE0B4
:2063400090E00E94C49661E073E28BE39EE30E945596892B29F18091443E8BA38091453E9C
:206360008CA38091463E8DA31EA2CE0183960E94E3959C01285C31092436310598F08C5216
:206380009140883C910580F414E00FC08AE093E29F938F930E94B3960F900F9012E005C088
:2063A00016E003C010E001C015E080913B468ADB812FE996CDBFDEBFDF91CF911F910F910F
:2063C000FF90EF90DF90CF90BF90AF909F908F907F906F905F904F903F902F9008952F923D
:2063E0003F924F925F926F927F928F929F92AF92BF92CF92DF92EF92FF920F931F93CF936A
:20640000DF93CDB7DEB7C859D109CDBFDEBF3C012B011A01CE56DF4F28833983C259D04065
:20642000C956DF4F0883C759D040C856DF4F1883C859D040FC0101900020E9F7AF0141506D
:206440005109481B590B8E010B591F4FBC01C8010E943196F30101900020E9F73197E6197F
:20646000F709E00FF11F1082F80101900020E9F73197E01BF10B30E020E0832F90E08E176B
:206480009F0748F4D801A80FB91F8C918E3209F42F5F3F5FF2CF2330A1F56CE771E3C80192
:2064A0000E942E960E94E395C257DF4F8883CE58D0406CE771E380E090E00E942E960E9455
:2064C000E395C157DF4F8883CF58D0406CE771E380E090E00E942E960E94E395C057DF4F80
:2064E0008883C059D0406CE771E380E090E00E942E960E94E395CF56DF4F8883C159D040E9
:2065000005C0BE0162577F4FC8012EDA46E061E082E076DA782E81114DC1C2010E94E39563
:20652000C257DF4F288139814A815B81CE58D040BC0180E08CDA81113AC180E293E29F93BB
:206540008F930E94B39640E062E373E280E0EDDC40E0B10180E0E9DC40E06BE671E280E030
:20656000E4DC40E067ED71E280E0DFDC40E0B80180E0DBDC40E06FE372E280E0D6DC0F9012
:206580000F90F1E0EF1211C040E06EEF71E280913B46CBDC40E0B60180913B46C6DC40E085
:2065A0006FE372E280913B46C0DCBF92AF929F928F9287E393E29F938F938BE39EE39F93CF
:2065C0008F930E94C99640E06BE37EE380913B46ACDC40E06AE072E280913B46A6DCC956BE
:2065E000DF4F0881C759D040C856DF4F1881C859D040CDBFDEBF50E1E52E68E1A62E62E2D0
:20660000B62E7BE3C72E7EE3D72EF80181918F011F928F93BF92AF92DF92CF920E94C9960A
:2066200040E06BE37EE380913B467FDCEA940F900F900F900F900F900F9039F740E06FE3C4
:2066400072E280913B4671DC40E067E473E280E06CDC41E06FE372E280E067DC49EEA42E2C
:2066600043E0B42EC12CD12C912C8E010F5F1F4F20E041E050E0BE0167577F4F80E0B1DA7C
:20668000019719F085E593E297C0C757DF4F2881C958D040892D90E02A3009F062C0FFEF74
:2066A000CF1ADF0AF801E80FF91F108261E073E2C8010E945596892B61F063E773E2C80115
:2066C0000E945596892B09F457C0912CEE24E39454C0CE56DF4F68817981C259D040C801E2
:2066E0000E945596892B09F447C0F80101900020E9F73197E01BF10B20E0822F90E08E1746
:206700009F0778F4D801A80FB91F3C913A3011F03D3029F4F801E80FF91F108202C02F5F53
:20672000ECCF65E075E2C8010E942E9665E075E280E090E00E942E960E940096F62ECC5683
:20674000DF4F7883C459D040CB56DF4F8883C559D040CA56DF4F9883C659D040EE2061F064
:2067600034C0F801E80FF91F2083939423E6291520F487E793E220C0912CE11007C084E05C
:20678000C816D10418F088E993E216C095E1C916D10418F086EC93E20FC0E1E0AE1AB10858
:2067A000A114B10409F064CF8DEE93E205C08AE194E202C08FE294E29F938F930E94B396C5
:2067C0000F900F901FEF0FEF02C010E000E0872D79D9CD57DF4F1883C358D040CC57DF4F6E
:2067E0000883C458D040CB57DF4FF882C558D040CC56DF4FF881C459D040CA57DF4FF8832B
:20680000C658D040CB56DF4F2881C559D040C957DF4F2883C758D040CA56DF4F8881C65986
:20682000D040C857DF4F8883C858D040212F302F4F2D5F2FC957DF4F6881C758D040782FFA
:2068400080E090E0C856DF4FCDBFDEBFDF91CF911F910F91FF90EF90DF90CF90BF90AF9069
:206860009F908F907F906F905F904F903F902F9008952F923F924F925F926F927F928F922C
:206880009F92AF92BF92CF92DF92EF92FF920F931F93CF93DF93CDB7DEB7CD58D109CDBF85
:2068A000DEBF5C013B014A011901DB010D900020E9F7AD0141505109461B570B7E01B5E64E
:2068C000EB0EF11CC7010E943196F30101900020E9F73197E619F709EE0DFF1D1082F70194
:2068E00001900020E9F73197EE19FF0930E020E0832F90E08E179F0748F4D701A80FB91F10
:206900008C918E3209F42F5F3F5FF2CF2330A1F56CE771E3C7010E942E960E94E395C857B9
:20692000DF4F8883C858D0406CE771E380E090E00E942E960E94E395C757DF4F8883C9587F
