:200000000C9474250C949F250C949F250C949F250C949F250C949F250C949F250C949F25EB
:200020000C949F250C949F250C949F250C949F250C949F250C949F250C949E430C949F2583
:200040000C949F250C949F250C949F250C949F250C944E470C949F250C949F250C949F25AF
:200060000C949F250C949F250C949F250C949F250C949F250C949F250C949F250C949F2560
:200080000C949F250C949F250C949F250C949F250C949F250C949F250C949F250C949F2540
:2000A0000C949F250C949F250C949F250C9476430C949F250C949F250C949F250C949F252B
:2000C0000C949F250C949F250C949F250C949F250C949F250C949F250C949F250C949F2500
:2000E0000C949F250C949F250C949F250C949F250C949F250C949F250C949F250C949F25E0
:200100000C94DA470C949F250C949F250C949F250C949F250C949F250C949F250C949F2562
:200120000C949F250C949F250C949F250C949F250C949F250C947D450C949F250C949F25A1
:200140000C949F250C949F250C949F250C947A490C949F250C949F250C949F250C949F2580
:200160000C94C5250C949F250C949F250C949F250C949F250C949F250C949F250C949F2539
:200180000C949F250C949F250C949F250C949F250C949F250C949F250C949F250C949F253F
:2001A0000C949F250C949F250C949F250C949F250C949F250C949F250C949F250C949F251F
:2001C0000C949F250C949F250C949F250C949F250C949F250C949F250C949F250C949F25FF
:2001E0000C949F250C949F250C949F250C949F250C949F250C94EB4B0C949F2500000000D1
:2002000000000080C0E0F8FCFFFFFCE0E0E0E0E0E0E0E0E0C0C080808000000000000000F0
:20022000000000000000000000181C3F3F7F7FFFFFFFFFFFEF8F0F0F0F0F0F0F0F0F1F1FDF
:200240001F3F3E7CF0C00000000000000000000000008080000000000101030303030200C6
:200260000000C0C0C0C08080000000000001010000000000000000000000000F1F3E7CF89C
:20028000F8F8F8F0F0F0F0F0F0F0F0F3FFFFFFFFFFFEFEFEFC781800000000000000000082
:2002A0000000000000000000010101030307070707070707071F7FFF3F1F0F0301000000EF
:2002C000000000000000000000000000000000000000000000F8F8F8F8F8F800000000004E
:2002E0000000000000000000000000000000000000000000000000000000000000C1C1C1BB
:20030000C1C1C100000000000000000000000000000000000000000000000000000000009A
:200320000000000000077FFFFFFFFFE08000000000000000000000000000000000000000DB
:2003400000000000000000000000000000000001070F1F3F7FFFFEFCF8F0E0C080000000A8
:20036000000000000000000000000000000000000000000000000000000000000000010379
:20038000070F3FFFFFFEFCF0800000000000003EFEFEFEFEF8C08000000000000000000032
:2003A000000000000000000000C0E0FFFFFFFFFF0F0000000000000001030F1F1F3F7F7F05
:2003C000FEFCFCF8F8F8F8F8F8F8F8F8FCFCFE7E7F3F3F1F0F0703000000000000000000C6
:2003E0000000000000000000000000000001010101010100000000000000000000000000F7
:200400000000000000000000000000000000000000000000000080C0C0800000000000005C
:20042000000000000000000000000000000000000000000000000000E0F0F0E0C000C3E7B2
:20044000E7C300C0E0F0F0E0000000000000000000000000000000000000003078F8F0E022
:20046000E0C1C1830300FFFFFFFF000383C1C1E0E0F0F878300000000000000000060F1F0C
:200480003E7CF8F8F0E0E0E1E1C3C303C0FFFFFFFFFFFFC003C3C3E1E1E0E0F0F8F87C3E98
:2004A0001F0F0600000000000000000000010101010303000F1F1F1F1F1F1F0F000303011F
:2004C00001010100000000000000000000000000000000000000000000000000000080C0D9
:2004E000C080000000000000000000000000000000000000000000000000000000000000BC
:20050000E0F0F0E0C0C083878783C0C0E0F0F0E00000000000000000000000000000000087
:200520000000003078F8F0E0E0C1C183838387878787878383C1C1E0E0F0F87830000000E5
:200540000000000000060F1F3E7CF8F8F0E0E0E1E1C3C3C3C7C7C7C7C7C7C7C7C3C3C3E1A0
:20056000E1E0E0F0F8F87C3E1F0F06000000000000000000000101010103030303030303F3
:20058000030303030303030101010100000000000000000000000000000000000000000042
:2005A00000000000000000000000000000000000000000000000000000000000000000003B
:2005C0000000000000000000000000000000E0E0E0C0C0800000000000000000000000007B
:2005E00000000000000000000000003C3C3C3C3C3C3C3C3C3C3CFFFFFFFFFFFFFFFF7E7E73
:200600003C3C1800000000000000000000000000000000000000000000000000000007073C
:200620000703030101000000000000000000000000000000000000000000000000000000AB
:2006400000000000000000000000000000000000000000000000000000000000000000009A
:2006600000000000000000000000000000C0E0E0E0C000000000000000000000000000005A
:200680000000000000000000000000000000000000000000000307870703000000000000BF
:2006A00000000000000000000000000000000000000000000000000000000080E0FCFFFFE0
:2006C000FFFCE08000000000000000000000000000000000000000000000000000000000BF
:2006E00000003C7FFFFFFFFFFFFFFFFF3C000000000000000000000000000000000000000B
:200700000000000000000000000000000001010101010000000000000000000000000000D4
:200720000000000000000000000000000000000000000000000000000000000000000000B9
:2007400000000000000000000000000000000000000000000000000000C0C0800000F07039
:20076000000080C0C000000000000000000000000000000000000000000000000000001861
:20078000181881993C7E66667E3C819918181800000000000000000000000000000000006D
:2007A00000000000000000000003030100000F0E000001030300000000000000000000000E
:2007C000000000000000000000000000000000000000000000000000000000000000000019
:2007E0000000000000000000000000000000000000000000000000000000000000000000F9
:2008000000000000000000000000000000000000000000000000000070F0E0800000000018
:2008200080C0C0E0F0783C3C78F0E0C00000000000000000000000000000000000000000F0
:20084000000103070F1E1E0F0703010100000000000003070F1E7CF0E0C080008080000064
:20086000000000000000000000000000000000000000000000000000000000000000000078
:200880000D1F1F3F3F7F7F0000000000000000000000000000000000000000000000000091
:2008A000000000000000000000000000000000000000000000000000000000000000000038
:2008C00000008080C0C0E0E0F0F0F8F8FCFCFEFEFFFFC0C0E0E0F0F0F8F8FCFCFEFEFFFF14
:2008E000FFFFFFFFFFFFFFFFFFFFFFFFFFFFFFFF00000101030307070F0F1F1F3F3F7F7F1A
:20090000FFFFFFFFFFFFFFFFFFFFFFFFFFFF000000000000000000000000000000000000E5
:200920000101030307070F0F1F1F3F3F02103019060000FC01020202020202FC0100000060
:20094000000000000000000000050000000004000400FE0300000000000000000000000089
:2009600000000600028C038602420222021C02000000000000000000000000078C01060335
:200980000202020222022202DC010000000000000000000006C000A00098008400FE038027
:2009A00000000000000000000000000000060000B801160212021202E20100000000000055
:2009C000000000000000070000FC003603120212021602E4010000000000000000000007AF
:2009E00000000200820362001A000600020000000000000000000000060000DC01220222C3
:200A0000022202DC010000000000000000000000000600013C02420242024203FC000000C5
:200A20000000000000000000000002000010020000000000000000000000000000000000A2
:200A4000000000020000100E0000000000000000000000000000000000000000070000402F
:200A600000A000A0001001100108020000000000000000000007000020012001200120017F
:200A80002001200100000000000000000000070000080210011001A000A000400000000061
:200AA0000000000000000006000006000300610211000E00000000000000000000000000A5
:200AC0000A780086017201890285024502FD028F0342013C0100000000090002C0017000F4
:200AE0004E0046005C00E00080030002000000000000080000FE03220222022202220222E6
:200B000002DC010000000000000000090000F800040102020202020202028C01C80000008B
:200B200000000000080000FE0302020202020202020401F800000000000000000007000098
:200B4000FE032202220222022202220200000000000000000000070000FE03220022002272
:200B6000002200020000000000000000000000090000F800040102020202220222022401D6
:200B8000E803000000000000080000FE0320002000200020002000FE0300000000000000C0
:200BA00000020000FE030000000000000000000000000000000000000000068001000200A9
:200BC0000200020002FE01000000000000000000000000080000FE03200010007800CC0093
:200BE000860102020000000000000000070000FE0300020002000200020002000000000058
:200C000000000000000A0000FE030E003800C0010002C00138000E00FE03000000000800B0
:200C200000FE030E0018007000C0000003FE030000000000000000090000F800040102024F
:200C40000202020202020401F800000000000000070000FE0322002200220022001C0000DF
:200C6000000000000000000000090000F800040102020202820202030403F80400000000DA
:200C80000000080000FE0322002200220022006200DC0300000000000000000800009C01DD
:200CA00012032202220222022C02C801000000000000000007020002000200FE03020002AA
:200CC00000020000000000000000000000080000FE0100030002000200020003FE01000000
:200CE0000000000000000802001C00F00080038003F0001C00020000000000000000000CBE
:200D000002003E00E0030003F0000E000E00F0000003C0033C0002000802020603CC00705C
:200D20000070008C0106030202000000000000000009020006000C003000E00330000C003D
:200D4000060002000000000000000800020203C202620232020A0206020202000000000008
:200D6000000000030000FF1F01100000000000000000000000000000000000000503001C1D
:200D8000006000800300020000000000000000000000000000020110FF1F0000000000003D
:200DA00000000000000000000000000000000700006000180006000E003000400000000030
:200DC0000000000000000006000800080008000800080008000000000000000000000000DD
:200DE00002010002000000000000000000000000000000000000000000070000900348020A
:200E000048024801F003000200000000000000000000070000FE031803080208020802F019
:200E20000100000000000000000000070000F0010802080208029801900000000000000072
:200E40000000000007E00010010802080208021003FE030000000000000000000007000061
:200E6000F0015803480248025802600100000000000000000000040800FE030A00020000BE
:200E8000000000000000000000000000000000070000F0090812081208121019F80F0000D4
:200EA0000000000000000000060000FE03100008000800F003000000000000000000000018
:200EC00000020000FA030000000000000000000000000000000000000000020010F21F00F0
:200EE00000000000000000000000000000000000000000070000FE034000600090010803AE
:200F0000080200000000000000000000020000FE03000000000000000000000000000000C4
:200F200000000000000A0000F803100008000800F003080008000800F00300000000060088
:200F400000F803100008000800F00300000000000000000000000006F0011803080208025D
:200F60001803F001000000000000000000000000070000F81F1803080208020802F001001D
:200F800000000000000000000007E00010010802080208021003F81F000000000000000011
:200FA0000000040000F8031000080000000000000000000000000000000000063001680279
:200FC0004802480248029001000000000000000000000000030800FE03080200000000008C
:200FE00000000000000000000000000000060000F801000200020001F803000000000000F2
:201000000000000000000608007800C0030003E00018000000000000000000000000000A82
:20102000080078008003C003380078008003800378000800000000000708021803B0006078
:2010400000B00108030002000000000000000000000608007810C0190007E0001800000064
:20106000000000000000000000000600020803C80268021802080200000000000000000005
:201080000000000318203A0A000000000000000000000000000000000000000000000000D1
:2010A000000000000000000000000000000000000000000000000000000000000000000030
:2010C0000004000000000000FC9F01FC9F01000000000000000000000000000000000000D4
:2010E0000000000000000000000000000000000000000000000000000000000600000000EA
:2011000000007C00000000000000007C0000000000000000000000000000000000000000D7
:201120000000000000000000000000000000000000000000000B00000080080080C8018053
:20114000FF01FC0B0084080080C80180FF01FC0F008C080080000000000000000000000014
:201160000000000000000000000000000000000B006000F0E000FCC1018C8303040303FF5B
:20118000FF070402030C060338840130FC01007800000000000000000000000000000000C9
:2011A00000000000000000000013000000000000F00000FC03000402010482010CC300F8D8
:2011C0007100F01800000C00000700800100C0780070FC001886010C020104020100FE00AB
:2011E000007C000E00000000780000FC0078C201FC82018C81010C83018CCF01FCDC0078ED
:20120000F000007C0000CC0100800100000100000000000000000000000000000003000010
:20122000000000007C00000000000000000000000000000000000000000000000000000032
:20124000000000000000000000000000000000000000000000000006000000007F00E0FF2A
:201260000338000E0C001804001000000000000000000000000000000000000000000000ED
:201280000000000000000000000000000000000000050400100C001838000EE0FF0300FFEA
:2012A00000000000000000000000000000000000000000000000000000000000000000002E
:2012C000000000000000000000000007100000900000D000003C000050000090000010006B
:2012E0000000000000000000000000000000000000000000000000000000000000000000EE
:2013000000000000000C000000000800000800000800000800000800C0FF010008000008C9
:20132000000008000008000008000000000000000000000000000000000000000000000491
:2013400000000000000000800900800700000000000000000000000000000000000000007D
:201360000000000000000000000000000000000000000000000000000007000000000C005A
:20138000000C00000C00000C00000C00000C00000000000000000000000000000000000011
:2013A000000000000000000000000000000000000000000400000000000000800100800127
:2013C00000000000000000000000000000000000000000000000000000000000000000000D
:2013E000000000000000000000000000000700800100E000003C00000700E00100780000E9
:201400000C00000000000000000000000000000000000000000000000000000000000000C0
:20142000000000000000000B000000E03F00F8FF0018C0000C80010C80010C80010C80017F
:2014400018C000F8FF00E03F0000000000000000000000000000000000000000000000009E
:201460000008000000000000200000200000200000300000FCFF01FCFF01000000000000DC
:201480000000000000000000000000000000000000000000000000000000000B000000E061
:2014A0000001F8E00118B0010C90010C88010C8C010C84011C8201F88301F08001000000A1
:2014C0000000000000000000000000000000000000000000000B00000060300078F00018F1
:2014E000C0000C80010C82010C82011C8301F8C701F0FC00007800000000000000000000BD
:201500000000000000000000000000000000000B003000003800003600003300C03000609F
:201520003000183000FCFF01FCFF01003000003000000000000000000000000000000000DB
:201540000000000000000000000B000000003000E0F3007CC3008C81018C81018C81018C88
:2015600081018CC3000CFF00003C0000000000000000000000000000000000000000000053
:201580000000000B000000C03F00F0FF0018C3008C81018C81018C81018C81019CC30038A8
:2015A000FF00203C000000000000000000000000000000000000000000000000000B0000C5
:2015C000000C00000C00000CC0010CF8010C3E008C0300CC00003C00001C00000C00000018
:2015E00000000000000000000000000000000000000000000000000B000000707C00F8FEFE
:20160000009CC7000C83010C83010C83018C8301F8C701F0FE00007C00000000000000007D
:2016200000000000000000000000000000000000000B000000E06300F8E70018CE010C8CFE
:20164000010C8C010C8C010CC40118E600F87F00E01F000000000000000000000000000012
:20166000000000000000000000000004000000000000C08001C080010000000000000000E4
:2016800000000000000000000000000000000000000000000000000000000000000000004A
:2016A000000000000004000000000000C08009C08007000000000000000000000000000096
:2016C000000000000000000000000000000000000000000000000000000000000000000CFE
:2016E000000000000800001C0000140000360000220000630000410080C100808000808075
:2017000000C000010000000000000000000000000000000000000000000C000000002200DA
:20172000002200002200002200002200002200002200002200002200002200002200000055
:20174000000000000000000000000000000000000000000C000000C0800180800080C100FB
:20176000004100004300002200002200003600001400001C00000800000000000000000033
:20178000000000000000000000000000000A0000003000003C00000C0000060000069C011E
:2017A000069E010E0700FC0100F8000000000000000000000000000000000000000000007A
:2017C0000000000000000010000000800F00603000104000089F0088BF00C4200164200132
:2017E000242001241001643C01C4A701E8A00018D000304800C04700000000000000000073
:20180000000E00800100E00100FC00001F00E01B007818001C18003C1800F81900C01F003A
:20182000003E0000F80100C0010000010000000000000000000000000000000E00000000A1
:201840000000FCFF01FCFF010C83010C83010C83010C83010C83010C83010C8301F8C701E0
:20186000F0FE00007C000000000000000000000000000000000E000000C01F00F07F00386A
:20188000E0010C80010E80030600030600030600030600030C80011CC00138F00030300033
:2018A0000000000000000000000000000000000E000000000000FCFF01FCFF010C80010C89
:2018C00080010C80010C80010C80010C800118C00038E000F07F00C01F0000000000000015
:2018E0000000000000000000000C000000000000FCFF01FCFF010C83010C83010C83010C28
:2019000083010C83010C83010C83010C830100000000000000000000000000000000000003
:201920000000000C000000000000FCFF01FCFF010C03000C03000C03000C03000C03000C4C
:2019400003000C03000C00000000000000000000000000000000000000000000000F00005A
:2019600000C01F00F07F0038E0001C80010C80010600030600030606030606030686030C0C
:2019800086011CE60038FE0120FE030000000000000000000000000E000000000000FCFF5D
:2019A00001FCFF01000300000300000300000300000300000300000300000300FCFF01FC1A
:2019C000FF0100000000000000000000000000000004000000000000FCFF01FCFF0100000B
:2019E0000000000000000000000000000000000000000000000000000000000000000000E7
:201A000000000000000000000000000900F00000F0010080030000030000030000030080D0
:201A200003FCFF01FCFF0000000000000000000000000000000000000000000000000000AC
:201A400000000000000E000000000000FCFF01FCFF01000600000300800100C00700600EC1
:201A600000303C003870001CE0000CC0010400010000000000000000000000000000000C78
:201A8000000000000000FCFF01FCFF010080010080010080010080010080010080010080C8
:201AA000010080010000000000000000000000000000000000000000001100000000000093
:201AC000FCFF01FCFF013C0000F00000800700003E0000F00100800100F001003E008007F5
:201AE00000F000003C0000FCFF01FCFF010000000000000E000000000000FCFF01FCFF01BC
:201B0000380000700000C00100800300000E00001C0000700000E000FCFF01FCFF01000067
:201B2000000000000000000000000000000F000000C01F00F07F0038E0000C80010E800312
:201B40000600030600030600030600030E80030C800138E000F07F00C01F000000000000DD
:201B6000000000000000000D000000000000FCFF01FCFF010C06000C06000C06000C060018
:201B80000C06000C06001C0700F80300F00100000000000000000000000000000000000012
:201BA000000F000000C01F00F07F0038E0000C80010E8003060003060003064003066003CE
:201BC0000EC0030C800138E003F03F03C00F020000000000000000000000000E000000007B
:201BE0000000FCFF01FCFF010C06000C06000C06000C06000C06000C06001C0F00F8FF015E
:201C0000F0F0010000010000000000000000000000000000000D000000007000F0F000FC89
:201C2000C1018C81030603030603030603030602030606030C860138FC0130780000000024
:201C40000000000000000000000000000000000C0C00000C00000C00000C00000C0000FC40
:201C6000FF01FCFF010C00000C00000C00000C00000C00000000000000000000000000002C
:201C80000000000000000000000E000000000000FC7F00FCFF0000C0010080030000030079
:201CA000000300000300000300800300C001FCFF00FC7F0000000000000000000000000061
:201CC0000000000D0400003C0000F80100C00F00007E0000F00100800100F001003E00C010
:201CE0000700F801003C00000400000000000000000000000000000000000000001304008D
:201D0000007C0000F80700807F0000F80100C00100FC00C00F00FC01001C00007C0000E04F
:201D20000700007F0000F00100E00100FE00E00F00FC00001C00000D0400010C80011CE0AB
:201D400001787000E03C00C00F00000700C01F00E0380038F0001CC0010C8001040001001A
:201D600000000000000000000000000000000000000E0400000C00003C0000780000E001B0
:201D80000080030000FF0100FF01800300E001007000001C00000C000004000000000000C0
:201DA00000000000000000000000000C0080010CC0010CE0010CB8010C9C010C8E010C8740
:201DC000018C8101CC80017C80013C80011C80010000000000000000000000000000000050
:201DE000000000000005000000FCFF1FFCFF1F040010040010000000000000000000000082
:201E00000000000000000000000000000000000000000000000000000000000000000007BB
:201E20000C0000380000E00100000700003C0000F0000080010000000000000000000000C9
:201E4000000000000000000000000000000000000000000000000000000404001004001056
:201E6000FCFF1FFCFF1F00000000000000000000000000000000000000000000000000002E
:201E8000000000000000000000000000000000000000000C000000000400000700C001006A
:201EA0007000001C00000C0000380000E000008003000006000004000000000000000000E5
:201EC000000000000000000000000000000A000008000008000008000008000008000008C8
:201EE0000000080000080000080000080000000000000000000000000000000000000000C2
:201F000000000000000000040400000C000018000010000000000000000000000000000085
:201F20000000000000000000000000000000000000000000000000000000000000000000A1
:201F4000000B00000000E30080F301C08901C08801C08801C08801C0C800C0FF0180FF0132
:201F60000080010000000000000000000000000000000000000000000000000B000000FCD9
:201F8000FF01FCFF0180C100C08001C08001C08001C0800180C10080FF00003E0000000002
:201FA0000000000000000000000000000000000000000000000B000000003E0080FF0080D9
:201FC000C100C08001C08001C08001C0800180C10080E30000220000000000000000000076
:201FE0000000000000000000000000000000000B000000003E0080FF0080C100C08001C0D7
:202000008001C08001C0800180C100FCFF01FCFF0100000000000000000000000000000084
:202020000000000000000000000B000000003E0080FF0080CD00C08C01C08C01C08C01C0E4
:202040008C0180CD0080EF00002E0000000000000000000000000000000000000000000009
:2020600000000006C00000C00000F8FF01FCFF01CC0000CC0000000000000000000000004E
:2020800000000000000000000000000000000000000000000000000000000000000B000035
:2020A00000003E0C80FF0C80C118C08011C08011C08011C0801180E11CC0FF0FC0FF07009D
:2020C00000000000000000000000000000000000000000000000000A000000FCFF01FCFFFF
:2020E00001800100C00000C00000C00000C00100C0FF0100FF01000000000000000000009D
:20210000000000000000000000000000000000000003000000CCFF01CCFF01000000000024
:2021200000000000000000000000000000000000000000000000000000000000000000009F
:20214000000000000000000000000003000018CCFF1FCCFF0F0000000000000000000000A0
:2021600000000000000000000000000000000000000000000000000000000000000000005F
:2021800000000000000B000000FCFF01FCFF01000C00000600001F00003B0080F100C0C0DF
:2021A000014080010000010000000000000000000000000000000000000000000000000359
:2021C000000000FCFF01FCFF01000000000000000000000000000000000000000000000007
:2021E0000000000000000000000000000000000000000000000000000011000000C0FF010E
:20220000C0FF01800100C00000C00000C00000C00100C0FF0180FF01800100C00000C0003B
:2022200000C00000C00100C0FF0180FF010000000000000A000000C0FF01C0FF01800100D2
:20224000C00000C00000C00000C00100C0FF0180FF0100000000000000000000000000003D
:20226000000000000000000000000000000B000000003E0080FF0080C100C08001C08001D3
:20228000C08001C0800180C10080FF00003E000000000000000000000000000000000000BE
:2022A000000000000000000B000000C0FF1FC0FF1F80C100C08001C08001C08001C0800112
:2022C00080C10080FF00003E00000000000000000000000000000000000000000000000000
:2022E000000B000000003E0080FF0080C100C08001C08001C08001C0800180C100C0FF1FB2
:20230000C0FF1F00000000000000000000000000000000000000000000000007000000C018
:20232000FF01C0FF01000300800100C00000C00000000000000000000000000000000000D9
:202340000000000000000000000000000000000000000000000A00000080630080E700C069
:20236000C401C08801C08801C08801C0880180F10080F10000000000000000000000000092
:2023800000000000000000000000000000000006C00000C00000F8FF00F8FF01C08001C0C7
:2023A00080010000000000000000000000000000000000000000000000000000000000009C
:2023C0000000000000000000000A000000C0FF00C0FF0100C0010080010080010080010030
:2023E000C000C0FF01C0FF010000000000000000000000000000000000000000000000009D
:202400000000000A400000C00100800F00007C0000E00100800100F000001E00C00700C0AF
:2024200000000000000000000000000000000000000000000000000000000000001040004C
:2024400000C00300801F0000FC0000C00100F001003F00C00300C00300003F0000F0010077
:20246000C00100F800801F00C001004000000000000000000000000B400001408001C0C175
:2024800001807300003E00001C00003F0080F300C0C00140800100000100000000000000F9
:2024A00000000000000000000000000000000000000A400000C00118800F18003C1800F00E
:2024C0000F00C00300F000001E00C00700C000000000000000000000000000000000000095
:2024E00000000000000000000000000A000001C0C001C0E001C0B001C09801C08C01C08652
:2025000001C08101C0800100800100000000000000000000000000000000000000000000B6
:20252000000000000007000000000800001C00F8F70FFCE31F04001004001000000000004C
:20254000000000000000000000000000000000000000000000000000000000000000000378
:20256000000000000000FFFF1F00000000000000000000000000000000000000000000003E
:2025800000000000000000000000000000000000000000000000000000060400100400100D
:2025A000FCE71FF8F70F001C000008000000000000000000000000000000000000000000F7
:2025C000000000000000000000000000000000000000000B000000001000000800000400D4
:2025E000000400000400000800001000001000001800000C00000000000000000000000087
:20260000000000000000000000000000000A000000FCFF01040001040001040001040001A0
:20262000040001040001040001FCFF0100000000000000000000000000000000000000008F
:20264000000000000000000210301F08F803FC070E0E060C060C0E0EFC07F80300000000B9
:2026600000000000000000000000060000180018001C00FE0FFE0F000000000000000000EE
:20268000000000000000000000080008380E3C0F0E0F860DC60C7C0C3C0C00000000000047
:2026A00000000000000000000818031C070E0E060C660C660CFC079C030000000000000020
:2026C00000000000000000088001C001B00198018C01FE0FFE0F800100000000000000003E
:2026E0000000000000000800037C077E0E360C360C360CF607E60300000000000000000014
:20270000000000000008F801FE07670E330C330C330CE707C60300000000000000000000CA
:20272000000000000806000600060EC60FF6013E000E000600000000000000000000000053
:20274000000000089C03FE07630C630C630C630CFE07DC0700000000000000000000000029
:2027600000000838067C0EC60CC60CC60C460EFC07F80100000000000000000000000000C3
:2027800000042041651200000C0000000F0000E00F0000F80100003F0000C03F0000F831F3
:2027A00000003E3000000E3000001E300000FC300000F0370000803F000000FE000000F01F
:2027C000070000C00F0000000E00000008000000000000000000000000000000000000000D
:2027E00000000000000000000000120000000000000000FEFF0F00FEFF0F00FEFF0F00069D
:20280000060C0006060C0006060C0006060C0006060C0006060C0006060C0006060C000EF0
:202820000F0E00FC0F0F00FCFD0700F8F8030000F00100000000000000000000000000007D
:202840000000000000000000000000000000001300000000803F0000F0FF0000F8FF0100BF
:202860007CE003000E8007000600060007000E0003000C0003000C0003000C0003000C0007
:2028800003000C0007000E00060007001E8007003CF0030038F0000040300000000000009B
:2028A0000000000000000000000000000000000000000000120000000000000000FEFF0FFA
:2028C00000FEFF0F00FEFF0F0006000C0006000C0006000C0006000C0006000C0006000C74
:2028E0000006000E000C0006001C0007007CC00300F8FF0300F0FF0000C03F000000000068
:202900000000000000000000000000000000000000000000000000000010000000000000A7
:202920000000FEFF0F00FEFF0F00FEFF0F0006060C0006060C0006060C0006060C00060607
:202940000C0006060C0006060C0006060C0006060C0006060C0006000C00000000000000E1
:202960000000000000000000000000000000000000000000000000000000000000000F0048
:2029800000000000000000FEFF0F00FEFF0F00FEFF0F0006060000060600000606000006E9
:2029A0000600000606000006060000060600000606000006060000060000000000000000CF
:2029C0000000000000000000000000000000000000000000000000000000000000000000F7
:2029E0000000001300000000803F0000F0FF0000F8FF01007CE003001E8007000E00070005
:202A000007000E0003000C0003000C0003000C00030C0C00030C0C00070C0C00060C060007
:202A20000E0C07003C8C030038FC070030FC0F000000000000000000000000000000000034
:202A40000000000000000000120000000000000000FEFF0F00FEFF0F00FEFF0F000006003A
:202A6000000006000000060000000600000006000000060000000600000006000000060026
:202A80000000060000FEFF0F00FEFF0F00FEFF0F000000000000000000000000000000000C
:202AA00000000000000000000000000000050000000000000000FEFF0F00FEFF0F00FEFFFC
:202AC0000F00000000000000000000000000000000000000000000000000000000000000E7
:202AE0000000000000000000000000000000000000000000000000000000000000000000D6
:202B00000000000000000000000000000000000000000C00E0010000E0070000E0070000FA
:202B2000000E0000000C0000000C0000000C0000000C0000000E00FEFF0700FEFF0700FE43
:202B4000FF0100000000000000000000000000000000000000000000000000000000000075
:202B6000000000000000000000000000000000000000000000000012000000000000000043
:202B8000FEFF0F00FEFF0F00FEFF0F00001C0000000E00000007000080070000C00F00008A
:202BA000E01E00007078000038F000001CE003000E80070006000F0006000E000200080040
:202BC000000000000000000000000000000000000000000000000000000000000F000000E6
:202BE0000000000000FEFF0F00FEFF0F00FEFF0F0000000C0000000C0000000C0000000C81
:202C00000000000C0000000C0000000C0000000C0000000C0000000C00000000000000006C
:202C2000000000000000000000000000000000000000000000000000000000000000000094
:202C400000150000000000000000FEFF0F00FEFF0F001E000000FE000000F0030000C01F59
:202C60000000007E000000F0030000C00F0000000E0000C00F0000F00300007E0000C01FE7
:202C80000000F0030000FE0000001E000000FEFF0F00FEFF0F00000000000000000000000D
:202CA000000000000000110000000000000000FEFF0F00FEFF0F001E0000007C000000F061
:202CC000000000E003000080070000001F0000003C000000F8000000E0010000C00700008F
:202CE000000F00FEFF0F00FEFF0F00000000000000000000000000000000000000000000AD
:202D000000000000000000000000001400000000801F0000F0FF0000F8FF01007CE00300BA
:202D20001E8007000600060007000E0003000C0003000C0003000C0003000C0003000C0082
:202D400007000E00060006001E8007007CE00300F8FF0100F0FF0000801F000000000000C8
:202D600000000000000000000000000000000000110000000000000000FEFF0F00FEFF0F2A
:202D800000FEFF0F00060C0000060C0000060C0000060C0000060C0000060C0000060C00A9
:202DA000000E0E00000E0E0000FC070000FC070000F00100000000000000000000000000E4
:202DC0000000000000000000000000000000000000000000001400000000801F0000F0FF51
:202DE0000000F8FF01007CE003001E8007000600060007000E0003000C0003000C00030095
:202E00000C0003800C0003C00D0007800F00060007001E0007007CE00F00F8FF1B00F0FF13
:202E20003800803F1000000000000000000000000000000000000000000012000000000079
:202E4000000000FEFF0F00FEFF0F00FEFF0F00060C0000060C0000060C0000060C00000600
:202E60000C0000060C0000060C0000060C0000060E00000E3F0000FCFF0F00FCF30F00F0B7
:202E8000010C00000000000000000000000000000000000000000000000000000000001114
:202EA00000000000F8E00000FCE10300FE8303008E0306008703060003070C0003070C0083
:202EC00003070C0003060C0003060C00070E0C000E0E0E003E1C07003CFC070020F80300AC
:202EE00000F0010000000000000000000000000000000000000000000000000000000000E1
:202F0000000000000F060000000600000006000000060000000600000006000000FEFF0F72
:202F200000FEFF0F00FEFF0F00060000000600000006000000060000000600000006000055
:202F4000000000000000000000000000000000000000000000000000000000000000000071
:202F6000000000000000000000120000000000000000FEFF0000FEFF0300FEFF070000003E
:202F800007000000060000000E0000000C0000000C0000000C0000000C0000000C000000DA
:202FA0000E0000000700FEFF0700FEFF0300FEFF00000000000000000000000000000000FB
:202FC000000000000000000000000000000011020000001E000000FE000000F8070000C003
:202FE0003F000000FE000000F0070000800F0000000E0000C00F0000F80300007F0000E0D7
:203000000F0000FC0100007E0000000E000000020000000000000000000000000000000016
:203020000000000000000000000000000000000000000019020000003E000000FE01000038
:20304000F81F000000FF010000F00F0000000F0000C00F0000F80300803F0000F8070000C3
:203060007E0000000E000000FE000000F8070000807F000000F8070000C00F0000000F00EB
:2030800000F00F0000FF0000F81F0000FE0100001E00000002000000110200080006000CCF
:2030A000000E000F003E80070078E00300F0F00000C07B0000801F0000001F0000803F003B
:2030C00000E0F90000F0E001003CC007001E000F0006000E000200080000000800000000F0
:2030E0000000000000000000000000000000000000000000000000000000000000110200BD
:2031000000000E0000001E0000007C000000F0000000E00300008007000000FF0F0000FCA3
:203120000F0000FE0F0080070000C0030000F00000007C0000001E0000000E00000002008F
:2031400000000000000000000000000000000000000000000000000000000000000000006F
:203160000000100000000000000E0006000F0006C00F0006E00D0006F00C0006380C000602
:203180001E0C00060F0C0086070C00C6010C00F6000C007E000C003E000C000E000C000682
:2031A000000C00000000000000000000000000000000000000000000000000000000000003
:2031C00000000000000000070000000000000000FFFFFF01FFFFFF010300800103008001E4
:2031E00003008001000000000000000000000000000000000000000000000000000000004B
:203200000000000000000000000000000000000000000000000000000000000000000000AE
:2032200000000000000000000000000009030000001F00000078000000E0030000000F00F9
:2032400000007C000000E0010000800F0000000C0000000000000000000000000000000076
:2032600000000000000000000000000000000000000000000000000000000000000000004E
:20328000000000000000000000000000000000000005030080010300800103008001FFFF9F
:2032A000FF01FFFFFF01000000000000000000000000000000000000000000000000000010
:2032C0000000000000000000000000000000000000000000000000000000000000000000EE
:2032E000000000000000000000000000000000000000000000000F000000000010000000AF
:20330000180000001E000080030000E00000003C0000000E0000000E0000003C000000F090
:20332000000000C0030000000F0000001C000000100000000000000000000000000000008F
:203340000000000000000000000000000000000000000000000000000000000D0000400020
:2033600000004000000040000000400000004000000040000000400000004000000040004D
:2033800000004000000040000000400000004000000000000000000000000000000000002D
:2033A00000000000000000000000000000000000000000000000000000000000000000000D
:2033C0000501000000030000000F0000000C000000080000000000000000000000000000C1
:2033E0000000000000000000000000000000000000000000000000000000000000000000CD
:203400000000000000000000000000000000000000000000000000000000000000000000AC
:2034200000000000000E0000000000C6030080E7070080610E00C0310C00C0300C00C0108F
:203440000C00C0100C00C0100C00C0100600C019030080FF0F0000FF0F0000000C0000004E
:2034600000000000000000000000000000000000000000000000000000000000000000004C
:20348000000000000000000000000F0000000000000000FEFF0F00FEFF0F008003070080FB
:2034A000010600C0000C00C0000C00C0000C00C0000C00C0000C00800106008003070000F8
:2034C000FF030000FC000000000000000000000000000000000000000000000000000000EE
:2034E0000000000000000000000000000000000D0000000000FC000000FF03008003070037
:20350000C0010E00C0000C00C0000C00C0000C00C0000C00C0010E00800307008087070045
:20352000008601000000000000000000000000000000000000000000000000000000000004
:2035400000000000000000000000000000000000000000000E0000000000FC000000FF035F
:20356000008003070080010600C0000C00C0000C00C0000C00C0000C00C0000C00800106B7
:203580000000030700FEFF0F00FEFF0F000000000000000000000000000000000000000009
:2035A000000000000000000000000000000000000000000000000000000E0000000000FC01
:2035C000000000FF03008033070080310600C0300C00C0300C00C0300C00C0300C00C03098
:2035E0000C0080310E008033070000BF030000BC01000000000000000000000000000000C7
:203600000000000000000000000000000000000000000000000000000000000000000800A2
:20362000000000C0000000C0000000FCFF0F00FEFF0F00C6000000C6000000C600000000A2
:2036400000000000000000000000000000000000000000000000000000000000000000006A
:2036600000000000000000000000000000000000000000000000000000000000000000004A
:203680000000000E0000000000FC400000FFC3018003870180018603C0000C03C0000C036A
:2036A000C0000C03C0000C03C0000C03800186010083E301C0FFFF00C0FF3F000000000072
:2036C0000000000000000000000000000000000000000000000000000000000000000000EA
:2036E00000000000000000000D0000000000000000FEFF0F00FEFF0F0080030000800100A1
:2037000000C0000000C0000000C0000000C0000000C001000080FF0F0000FF0F000000004C
:20372000000000000000000000000000000000000000000000000000000000000000000089
:2037400000000000000000000000000000040000000000000000CEFF0F00CEFF0F000000AD
:20376000000000000000000000000000000000000000000000000000000000000000000049
:20378000000000000000000000000000000000000000000000000000000000000000000029
:2037A000000000000000000000000000000000000000040000800100008001CEFFFF01CE68
:2037C000FFFF000000000000000000000000000000000000000000000000000000000000EB
:2037E0000000000000000000000000000000000000000000000000000000000000000000C9
:2038000000000000000000000000000000000000000000000000000E00000000000000009A
:20382000FEFF0F00FEFF0F000030000000180000001C0000007E000000F7000080C3030051
:20384000C0810700C0000E0040000C000000080000000000000000000000000000000000FE
:20386000000000000000000000000000000000000000000000000000000000000400000044
:203880000000000000FEFF0F00FEFF0F000000000000000000000000000000000000000010
:2038A000000000000000000000000000000000000000000000000000000000000000000008
:2038C0000000000000000000000000000000000000000000000000000000000000000000E8
:2038E00000140000000000000000C0FF0F00C0FF0F000003000080010000C0000000C00014
:203900000000C0000000C001000080FF0F0000FF0F008001000080000000C0000000C00009
:203920000000C0000000C001000080FF0F0000FF0F0000000000000000000000000000006A
:203940000000000000000D0000000000000000C0FF0F00C0FF0F000003000080010000C07A
:20396000000000C0000000C0000000C0000000C001000080FF0F0000FF0F000000000000AA
:20398000000000000000000000000000000000000000000000000000000000000000000027
:2039A00000000000000000000000000F0000000000FC000000FF0300808707008001060065
:2039C000C0010E00C0000C00C0000C00C0000C00C0000C00C0010E00800106008087070084
:2039E00000FF030000FC0000000000000000000000000000000000000000000000000000C9
:203A0000000000000000000000000000000000000F0000000000000000C0FFFF01C0FFFF1A
:203A2000018003030080010600C0000C00C0000C00C0000C00C0000C00C0000C00800106F5
:203A4000008003070000FF030000FC000000000000000000000000000000000000000000DE
:203A60000000000000000000000000000000000000000000000E0000000000FC000000FF3D
:203A800003008003070080010600C0000C00C0000C00C0000C00C0000C00C0000C00800195
:203AA000060000030700C0FFFF01C0FFFF0100000000000000000000000000000000000078
:203AC0000000000000000000000000000000000000000000000000000000090000000000DD
:203AE000000000C0FF0F00C0FF0F000007000080010000C0000000C0000000C00000000062
:203B00000000000000000000000000000000000000000000000000000000000000000000A5
:203B2000000000000000000000000000000000000000000000000000000000000000000C79
:203B400000000000008F0100808F0700C0190600C0180C00C0300C00C0300C00C0300C0008
:203B6000C0300C00C061060080E3070000C3030000000000000000000000000000000000F2
:203B8000000000000000000000000000000000000000000000000000000000000000000025
:203BA000000000000800000000C0000000C0000000FCFF0700FCFF0F00C0000C00C0000CD9
:203BC00000C0000C0000000000000000000000000000000000000000000000000000000019
:203BE0000000000000000000000000000000000000000000000000000000000000000000C5
:203C00000000000000000000000D0000000000000000C0FF0300C0FF070000000E00000001
:203C20000C0000000C0000000C0000000C000000060000000300C0FF0F00C0FF0F000000AF
:203C4000000000000000000000000000000000000000000000000000000000000000000064
:203C600000000000000000000000000000000D40000000C0010000C00F0000003F00000028
:203C8000F8010000C00F0000000E0000000F0000E0070000FC0000801F0000C0030000C03A
:203CA000000000000000000000000000000000000000000000000000000000000000000004
:203CC000000000000000000000000000000000000000001440000000C0010000C00F000000
:203CE00000FF000000F8070000800F0000000F0000F00F0000FF0000C00F0000C003000098
:203D0000C03F000000FC030000C00F0000000E0000C00F0000FC0100C03F0000C007000036
:203D2000C000000000000000000000000000000000000000000000000E0000080040000C61
:203D400000C0010E00C083070080C7030000FE0000007C0000007C000000EE010080C703D1
:203D600000C0830F00C0000E0040000C0000000800000000000000000000000000000000CF
:203D800000000000000000000000000000000000000000000000000000000000000D4000D6
:203DA0000000C0010000C00F0003003F000300F8810300C0EF010000FE0000001F0000E005
:203DC000070000FC0000801F0000C0070000C00000000000000000000000000000000000BA
:203DE0000000000000000000000000000000000000000000000000000000000000000000C3
:203E000000000C00000000C0000E00C0000F00C0800F00C0E00D00C0700C00C0380C00C0FD
:203E20001C0C00C00E0C00C0070C00C0010C00C0000C000000000000000000000000000014
:203E4000000000000000000000000000000000000000000000000000000000000000000062
:203E60000000000000000000000000000000000000F8FF7F00000000C0FFFFFF0F00000000
:203E8000F8FFFFFF7F000000FFFFFFFFFF030080FFFFFFFFFF0700E0FFFFFFFFFF1F00F044
:203EA000FFFFFFFFFF3F00F0FF070080FF7F00F83F000000F07F00FC0F000000C0FF00FC68
:203EC0000300000000FF00FE0100000000FE01FE0000000000FC017E0000000000F8017FF1
:203EE0000000000000F8033F0000000000F0033F0000000000F0033F0000000000F0033FF2
:203F00000000000000F0033F0000000000F0033F0000000000F0033F0000000000F0033FD9
:203F20000000000000F0037F0000000000F8037E0000000000F801FE0000000000FC01FEA4
:203F40000100000000FE01FC0300000000FF00FC0F000000C0FF00F83F000000F07F00F003
:203F6000FF070080FF7F00F0FFFFFFFFFF3F00E0FFFFFFFFFF1F0080FFFFFFFFFF07000097
:203F8000FFFFFFFFFF030000F8FFFFFFFF000000C0FFFFFF0F00000000F8FF7F00000000ED
:203FA000000000000000000000000000000000000000000000000000000000000000000001
:203FC00000000000000000000000000000000000F800000000000000F800000000000000F1
:203FE000F800000000000000F800000000000000F800000000000000F800000000000000E1
:20400000FC00000000000000FC00000000000000FC00000000000000FE00000000000000AE
:20402000FE00000000000000FF00000000000000FF00000000000080FF000000000000C045
:20404000FF000000000000F0FFFFFFFFFFFF01FEFFFFFFFFFFFF01FFFFFFFFFFFFFF01FF84
:20406000FFFFFFFFFFFF01FFFFFFFFFFFFFF01FFFFFFFFFFFFFF01FFFFFFFFFFFFFF010057
:20408000000000000000000000000000000000000000000000000000000000000000000020
:2040A000000000000000000000000000000000000000000000000000000000000000000000
:2040C0000000000000000000000000000000000000000000000000000000000000000000E0
:2040E00000000000000000000000000000F80100C00F000000FF0100FC0F0000C0FF01002D
:20410000FF0F0000F0FF0180FF0F0000F8FF01C0FF0F0000FEFF01E0FF0F0000FFFF01F072
:20412000FF0F0080FFFF01F87F000080FFF901FC0F0000C07FF801FC030000E03FF801FEAA
:20414000010000F01FF801FE000000F00FF801FE000000F807F8017F000000FC03F8017F74
:20416000000000FC01F8013F000000FE00F8013F000000FF00F8013F0000007F00F8013FE6
:204180000000803F00F8013F0000C03F00F8013F0000C01F00F8013F0000E01F00F8017F63
:2041A0000000F00F00F8017E0000F80700F801FE0000F80700F801FE0100FC0300F801FCA8
:2041C0000300FF0100F801FC0780FF0000F801F81FF0FF0000F801F8FFFF7F0000F801F00B
:2041E000FFFF3F0000F801E0FFFF1F0000F801C0FFFF070000F80180FFFF030000F801005B
:20420000FEFF000000F80100F01F0000000000000000000000000000000000000000000099
:204220000000000000000000000000001F000000C0030000FF000000F8030000FF030000A0
:20424000FF030000FF070080FF030000FF1F00E0FF030000FF3F00F0FF030000FF3F00F076
:20426000FF030000F87F00F83F000000C0FF00FC0F00000000FF00FC0300000000FE01FEC9
:204280000100000000FC01FE0000000000FC017E0000000000F8017F0000000000F8037FB5
:2042A0000000000000F0033F00003E0000F0033F00003E0000F0033F00003E0000F0033F7C
:2042C00000003E0000F0033F00003E0000F0033F00003E0000F0033F00003E0000F0037FDE
:2042E00000003F0000F8037E00007F0000F8037E00807F0000F801FE00807F0000FC01FE1E
:2043000001C0FF0000FC01FC03E0FF0000FE00FC0FF8FB0100FF00F8FFFFF307C07F00F8DF
:20432000FFFFF11FF07F00F0FFFFF1FFFF3F00E0FFFFE0FFFF1F0080FF3FC0FFFF0F00007E
:20434000FF1F80FFFF070000F80700FFFF030000000000FCFF000000000000E01F000000C0
:204360000000000000000000000000E00F000000000000F80F000000000000FC0F0000003C
:20438000000000FF0F000000000080FF0F0000000000C0FF0F0000000000F0DF0F000000D5
:2043A0000000F8CF0F0000000000FEC30F0000000000FFC10F00000000C07FC00F0000007A
:2043C00000E03FC00F00000000F80FC00F00000000FC07C00F00000000FE01C00F00000079
:2043E00080FF00C00F000000C03F00C00F000000F01F00C00F000000F80700C00F000000F5
:20440000FE0300C00F000000FF0000C00F0000C07F0000C00F0000E01F0000C00F0000F82A
:204420000F0000C00F0000FC030000C00F0000FEFFFFFFFFFFFF01FFFFFFFFFFFFFF01FFDE
:20444000FFFFFFFFFFFF01FFFFFFFFFFFFFF01FFFFFFFFFFFFFF01FFFFFFFFFFFFFF010073
:20446000000000C00F000000000000C00F000000000000C00F000000000000C00F00000000
:20448000000000C00F000000000000C00F000000000000C00F000000000000C00F000000E0
:2044A00000000000000000000000000000000000000000003C00000000000000FC010000C3
:2044C00000007800FC07000000E07F00FC0F000080FF7F00FC1F0000FCFF7F00FC3F00F039
:2044E000FFFF7F00FC7F00FEFFFF7F00F07F00FEFFFF7F0080FF00FEFF873F0000FF00FE20
:204500003F801F0000FE01FE00C00F0000FC017E00E0070000F8017E00E0070000F8037EB8
:2045200000E0030000F8037E00F0030000F0037E00F0030000F0037E00F0030000F0037EF3
:2045400000F0030000F0037E00F0030000F0037E00F0030000F0037E00F0030000F0037ECB
:2045600000F0070000F8037E00F0070000F8017E00E00F0000FC017E00E00F0000FC017E89
:2045800000E01F0000FE007E00C07F0000FF007E00C0FF00C07F007E0080FF07F87F007EED
:2045A0000000FFFFFF3F007E0000FEFFFF1F007E0000FCFFFF0F007E0000F8FFFF07007EA6
:2045C0000000F0FFFF010000000080FF7F000000000000FC0F0000000000000000000000E3
:2045E000000000000000000000000000000000000080FF7F0000000000FEFFFF0F000000B2
:20460000C0FFFFFF7F000000F8FFFFFFFF010000FEFFFFFFFF070000FFFFFFFFFF0F0080DE
:20462000FFFFFFFFFF1F00E0FF3FF0FFFF3F00F0FF01FC0FF87F00F03F00FE01C0FF00F8BE
:204640000F007F0000FF00FC07003F0000FE01FC01801F0000FC01FE00801F0000FC01FE5B
:2046600000C00F0000F8037E00C00F0000F8037F00E0070000F0033F00E0070000F0033F77
:2046800000E0070000F0033F00E0070000F0033F00E0070000F0033F00E0070000F0033FB6
:2046A00000E0070000F0033F00E00F0000F8037F00E00F0000F8017F00E00F0000F801FE2B
:2046C00000C01F0000FC01FE00C03F0000FE01FE01807F0000FF00FC0780FF01C07F00FC47
:2046E0003F00FF07F07F00F83F00FFFFFF3F00F03F00FEFFFF1F00E03F00FCFFFF0F00C061
:204700003F00F8FFFF0700003F00E0FFFF010000380080FF7F000000000000FC0F000000FE
:2047200000000000000000000000000000000000000000000000007E000000000000007E7D
:20474000000000000000007E000000000000007E000000000000007E000000000000007E61
:20476000000000000000007E000000000000007E0000000000F0017E0000000080FF017ED0
:2047800000000000F8FF017E00000080FFFF017E000000E0FFFF017E000000FCFFFF017ED0
:2047A000000000FFFFFF017E0000C0FFFFFF017E0000F8FFFF0F007E0000FCFF3F00007E06
:2047C0000000FFFF0300007E00C0FF7F0000007E00F0FF0F0000007E00F8FF010000007EAC
:2047E00000FE7F000000007E00FF0F000000007E80FF03000000007EE0FF00000000007ED5
:20480000F03F00000000007EF81F00000000007EFC0700000000007EFF010000000000FED7
:20482000FF000000000000FE3F000000000000FE1F000000000000FE0F000000000000FE14
:2048400003000000000000FE01000000000000FE000000000000007E0000000000000000DA
:2048600000000000000000000000000000000000000000F01F000000000000FCFF0000002E
:20488000F80300FFFF030000FF1F80FFFF0F00C0FF3FC0FFFF1F00E0FF7FE0FFFF3F00F02B
:2048A000FFFFF0FFFF3F00F8FFFFF93FE07F00F8FFFFFB0780FF00FC0FFCFB0300FF00FCC9
:2048C00003F0FF0100FE01FE01E0FF0000FC01FE00C0FF0000FC017E00807F0000F8017F5C
:2048E00000807F0000F8033F00803F0000F0033F00003F0000F0033F00003F0000F0033FAC
:2049000000003F0000F0033F00003F0000F0033F00003F0000F0033F00003F0000F0033FD3
:2049200000003F0000F0037F00807F0000F8037E00807F0000F801FE00C0FF0000FC01FE9E
:2049400000E0FF0000FC01FC03F0FF0100FE01FC07FCFB0300FF00F8FFFFFB0F80FF00F81A
:20496000FFFFF93FF07F00F0FFFFF0FFFF3F00E0FF7FE0FFFF3F00C0FF3FE0FFFF1F000001
:20498000FF1FC0FFFF070000F80300FFFF030000000000FEFF000000000000F01F0000002C
:2049A00000000000000000000000000000000000C0FF000000000000F8FF0F0038000000FA
:2049C000FEFF3F00F8010080FFFF7F00F80700C0FFFFFF01F80F00E0FFFFFF03F83F00F0DA
:2049E000FFFFFF03F83F00F87F80FF07F87F00F80F00FC0FC0FF00FC0300F80F00FF00FC3A
:204A00000100E01F00FE01FE0000C01F00FC017E0000C01F00F8017E0000803F00F8037FB0
:204A20000000803F00F8033F0000003F00F0033F0000003F00F0033F0000003F00F0033F2A
:204A40000000003F00F0033F0000003F00F0033F0000003F00F0033F0000003F00F0037F52
:204A60000000801F00F8037E0000801F00F801FE0000C00F00FC01FE0000E00F00FE01FED2
:204A80000100E00700FF00FC0700F80380FF00FC0F00FC01E07F00F87F80FF00FC3F00F02A
:204AA000FFFF7FE0FF3F00E0FFFFFFFFFF1F00C0FFFFFFFFFF070080FFFFFFFFFF03000021
:204AC000FEFFFFFFFF000000F8FFFFFF1F000000C0FFFFFF0300000000F8FF0F0000000002
:204AE0000000000000000000E5E7FCE385EC9FE501C08193EF3FF907E0F3D9F311241FBE62
:204B0000CFEFCDBFDFE5DEBF00E00CBF18E2A0E0B0E2E6E3FFE900E00BBF02C007900D92E0
:204B2000A634B107D9F72CE3A6E4B8E201C01D92A537B207E1F70E94004B0C94994F0C94EE
:204B400000009091A10995FFFCCF8093A00980E090E00895E0E6F6E088E0818384E0828391
:204B60008093B00088E1808BE0EAF9E083E0858389E186831782848180618483848188600A
:204B8000848383818063838308951F920F920FB60F9211240BB60F928F939F93EF93FF93CD
:204BA000E0912729F09128298091A009E45DFB4C8083809127299091282901968093272950
:204BC000909328298091272990912829883C910520F01092272910922829FF91EF919F91FF
:204BE0008F910F900BBE0F900FBE0F901F9018958091CF0187FDFCCF0895FADF8091CF013F
:204C000081FF19C085E390E29F938F930E94CD4C86E38093CA01EF93FF930F932F93EBECBC
:204C2000F1E008ED21E004BF20832F910F91FF91EF910F900F900895CF93DF93EC01C11565
:204C400088E0D807D8F4D4DFC093C001D093C1011092C20186E08093CA01EF93FF930F93F6
:204C60002F93EBECF1E008ED21E004BF20832F910F91FF91EF918091C40101C080E0DF9197
:204C8000CF9108950F931F93CF93DF931F92CDB7DEB78C01011588E01807F8F46983ADDF97
:204CA00083E38093CA010093C0011093C1011092C20169816093C40185E38093CA01EF9328
:204CC000FF930F932F93EBECF1E008ED21E004BF20832F910F91FF91EF910F90DF91CF91FB
:204CE0001F910F9108958093C30A8091C20A87FFFCCF08951092C30A8091C20A87FFFCCF7F
:204D00008091C30A08950F931F93CF93DF9380E18093860683E0E7DF80E0E5DF80E0E3DF81
:204D2000E9DFC82FD0E0DC2FCC27E4DF9E01280F311DC901215031092F3F310558F4C8EE04
:204D4000D7E38C010851184CD5DF8993C017D107D9F703C080E090E002C081E090E0DF916A
:204D6000CF911F910F9108958091E837823009F456C0843009F057C08091EA3790E0982FC4
:204D800088272091E937820F911D823020E8920719F148F4811521E4920771F0813020E86D
:204DA0009207B1F00895803120E89207D1F0803820E8920749F008954091ED372091E53718
:204DC000E1EFF7E330E021C021E020932529089521E020932429089510922429109223291E
:204DE00008952091F037209349352091EF3720934A352091EE3720934B352091ED37209373
:204E00004C3521E0209323290895341729F050813F5F3296250FF9CF2093E5370895809160
:204E2000E93790E0089580E090E008956CDF9CDF20E1E0E8F6E025830895E0EAF6E02EE37D
:204E4000258348E0468330E13683A0E2B6E014969C93149794E09683958314968C9314973A
:204E600096839583458314967C9314979683958314966C93968395833583258308955F92DC
:204E80006F927F928F929F92AF92BF92CF92DF92EF92FF920F931F93CF93DF93EC015B01C7
:204EA0004A0139011E2D5F2C8417950709F46BC06217730709F467C09A012F5F3F4F281B27
:204EC000390BC3010196861B970B289F6001299FD00C389FD00C1124E12CF12C80E590E03D
:204EE000ACDFB30181E590E0A8DFBE0182E590E0A4DFB40183E590E0A0DFB50180E290E069
:204F00009CDFBE0181E290E098DF8EE38093A50698E09093A60680E18093A60610922406AB
:204F200084E08093A6068093A50622E2209324068093A6068093A5069093A50680E090E094
:204F4000DC0124E08C159D05AE05BF05B0F4009324062093A6062093A506509224062093D9
:204F6000A6062093A506109324062093A6062093A5060196A11DB11DE5CF80E18093A506A7
:204F80008EE38093A506DF91CF911F910F91FF90EF90DF90CF90BF90AF909F908F907F90FB
:204FA0006F905F900895AF92BF92CF92DF92EF92FF920F931F93CF93DF931F92CDB7DEB7FE
:204FC0007C015B016A0180E590E0298336DFB60181E590E032DFB70182E590E02EDFB70105
:204FE0006F5F7F4F83E590E028DFB50180E290E024DFB70181E290E020DF8EE38093A506F2
:2050000098E09093A60680E18093A6061092240684E08093A6068093A50632E2309324067B
:205020008093A6068093A5069093A5062981AC14BD04B0F4209324068093A6068093A506FC
:20504000109324068093A6068093A506009324068093A6068093A5069FEFA91AB90AE7CF02
:2050600080E18093A5068EE38093A5060F90DF91CF911F910F91FF90EF90DF90CF90BF90F8
:20508000AF900895AF92BF92CF92DF92EF92FF920F931F93CF93DF931F92CDB7DEB77C014F
:2050A0005B016A01BC0180E590E02983C6DEB70181E590E0C2DEB50182E590E0BEDEB60139
:2050C00083E590E0BADEB70180E290E0B6DEB50181E290E0B2DE8EE38093A50698E090935F
:2050E000A60680E18093A6061092240684E08093A6068093A50632E2309324068093A60677
:205100008093A5069093A5062981AC14BD04B0F4209324068093A6068093A506109324060D
:205120008093A6068093A506009324068093A6068093A5069FEFA91AB90AE7CF80E180937A
:20514000A5068EE38093A5060F90DF91CF911F910F91FF90EF90DF90CF90BF90AF900895AF
:205160008F929F92AF92BF92EF92FF920F931F93CF93DF9300D01F92CDB7DEB77C018B016E
:2051800080E590E029833A834B835C8356DEB80181E590E052DEB70182E590E04EDEB701BE
:2051A00083E590E04ADEB80180E290E046DEB70181E290E042DEE0EAF6E07EE3758388E034
:2051C000868310E1168340E2E42E46E0F42ED70114961C92149764E06683658392E21496B2
:2051E0009C93149766836583858329813A814B815C814A01AA24BB2414968C92149766839A
:205200006583832E942EA52EBB2414968C9214976683658314962C93668365831583758373
:205220002496CDBFDEBFDF91CF911F910F91FF90EF90BF90AF909F908F9008956F927F92D2
:205240008F929F92AF92BF92CF92DF92EF92FF920F931F93CF93DF931F92CDB7DEB73B0158
:205260005A0140E451E0849F4001859F900C1124B50180E590E02983E0DDB501615C7F4FF0
:2052800081E590E0DADDB30182E590E0D6DDB301685D7F4F83E590E0D0DDB50180E290E0EF
:2052A000CCDDB30181E290E0C8DD8EE38093A50698E09093A60680E18093A60610922406B7
:2052C00084E08093A6068093A50632E2309324068093A6068093A5069093A5062981A40152
:2052E000495F5F4F89EB881A8EEF980A34E060E070E0CA018959914CFC01E61BF70BE49180
:20530000F8E0E7FF0FC0209324063093A6063093A506109324063093A6063093A506009309
:2053200024060EC0E09224063093A6063093A506D09224063093A6063093A506C092240617
:205340003093A6063093A506EE0FF150D1F66F5F7F4F6830710581F6485F5F4F481559053A
:2053600031F680E18093A5068EE38093A5060F90DF91CF911F910F91FF90EF90DF90CF901D
:20538000BF90AF909F908F907F906F9008952F923F924F925F926F927F928F929F92AF927D
:2053A000BF92CF92DF92EF92FF920F931F93CF93DF93CDB7DEB76B97CDBFDEBF8B839C831F
:2053C0004B013A010C872D87398F2501F501A4903196B4903196249031963490FC01019048
:2053E0000020E9F731972E2F281B29873FEFC316D306E306F30609F092C04B81488B49831D
:205400009A83822D90E08D8B9E8BA32DB0E0AF8BB88F2A2C312CF2013496E20DF31DEF834D
:20542000F8878981F8898F1B2985821708F052C1A981BA812D91A983BA8330E0ED89FE89CD
:205440002E1B3F0B4F89588D249FC001259F900D349F900D1124FC013496E40DF51DE49133
:205460001B821C82C12CD12CAE2FB0E0AA87BB87EF81F885E80FF91FEB8BFC8BA601480D32
:20548000591D4E875F878A859B85C816D90608F040C053011A8E1B8EAB89BC89EB81FC81F0
:2054A000AE0FBF1FA98BBA8BEA8DFB8DE215F30530F5E989FA892A8D3B8DE21BF30B349191
:2054C0003D83750108E04D8147FF08C02C85312F4D85598DB7018E859F8542DE5D81550FB8
:2054E0005D838FEFE81AF80A015069F798E0A90EB11CAA8DBB8D1196AA8FBB8FD5CFFFEF62
:20550000CF1ADF0A2B813C81220D331D2B833C83B5CF8A859B850196880E991E82CFBA01C1
:2055200080E590E08ADCB301615071096B0D711D81E590E082DCB40182E590E07EDC6FE3DF
:2055400071E083E590E079DCB30180E290E075DCB40181E290E071DC8EE38093A50698E07A
:205560009093A60680E18093A6061092240684E08093A6068093A50622E22093240680939B
:20558000A6068093A5069093A506BE2DD88A0D853B813983632E7C80822C912C432D50E0E4
:2055A0004F8358872A2D30E0A2014C5F5F4F420F531F94E0A92E862DA9818A1B2984821503
:2055C00008F082C0F30161913F0170E0681979092F803884629DC001639D900D729D900DA4
:2055E0001124FC013496E40DF51DA49160E070E01A861B862A2E312C2B823C821A01280E35
:20560000391E2D823E822A843B848B819C812816390610F080E040C080E090E02D803E8016
:20562000260E371E8217930778F5F101E81BF90BE491F8E0E7FF10C000932406A092A606AA
:20564000A092A50610932406A092A606A092A506AC85A09324060FC0B0932406A092A6063D
:20566000A092A506A889A0932406A092A606A092A506C0922406A092A606A092A506EE0FD0
:20568000F150C1F60196CECF8A859B8501968A879B87620F731FB7CF8B1509F48CCFB09321
:2056A0002406A092A606A092A506988990932406A092A606A092A506C0922406A092A60682
:2056C000A092A5068F5FE8CF80E18093A5068EE38093A5066B96CDBFDEBFDF91CF911F9150
:2056E0000F91FF90EF90DF90CF90BF90AF909F908F907F906F905F904F903F902F9008954B
:20570000282F30E0E0E0FBE020A731A780931F29682F82E390E0B6CA80911F29823310F093
:205720008253EECF08952F923F924F925F926F927F928F929F92AF92BF92CF92DF92EF928D
:20574000FF920F931F93CF93DF93CDB7DEB72797CDBFDEBF8C839D834B014E835F83280139
:20576000390100E010E0802FEC81FD81E00FF11FB49068E20E94564C9401290F311D2A83EC
:205780003B832E803F8038E0839F200C311C112488E08983B0FE03C0A301920102C0A70170
:2057A0009601B1018A819B81DBDCB694998191509983AFEF2A1A3A0A9111ECCF0F5F1F4F02
:2057C000083C110581F6AA20A1F17401B8E2EB0EF11CE1E08E1A9108CE80DF80F1E0CF1A1E
:2057E000D1080FEF1FEF2FEF30E0A701B401C60149DCAE80BF8028E2A20EB11C0FEF1FEF4D
:205800002FEF30E0A701B401C5013CDC0FEF1FEF2FEF30E0A501B601C401C5DB4E815F8174
:20582000475D5F4F0FEF1FEF2FEF30E0B601C701BADB2796CDBFDEBFDF91CF911F910F91C2
:20584000FF90EF90DF90CF90BF90AF909F908F907F906F905F904F903F902F9008952F92C8
:205860003F924F925F926F927F928F929F92AF92BF92CF92DF92EF92FF920F931F93CF93F5
:20588000DF9300D01F92CDB7DEB789839A831B0149015A012701380100E010E0F801EC53A9
:2058A000FD4FE490C80168E270E00E94624CC980DA80C80ED91ECB0123E0880F991F2A9528
:2058C000E1F7820D931D8B839C8338E0F32EE0FE03C0A501940102C0A30192016B817C818D
:2058E000C6013EDCE694FA94EB81FC813196EB83FC83F110ECCF0F5F1F4F0034F1E01F075F
:2059000069F62496CDBFDEBFDF91CF911F910F91FF90EF90DF90CF90BF90AF909F908F906D
:205920007F906F905F904F903F902F9008953F924F925F926F927F928F929F92AF92BF92C7
:20594000CF92DF92EF92FF920F931F93CF93DF9300D01F92CDB7DEB729013A01470158019B
:20596000603127E272078105910520F06FE077E280E090E08E010F5F1F4F7E01E5E0EE0EC5
:20598000F11C2AE030E040E050E00E94764CF80161938F01B901CA01EE15FF0591F7CC20AF
:2059A00009F497C08C81882311F1750164019301820145E850E06BE470E040DC93018201B8
:2059C00045E850E063E770E08B8138DC9301820145E850E06BE970E08A8130DC930182016A
:2059E00045E850E063EC70E0898128DC8DC03B80332081F18501740125EC30E04EE550E051
:205A000065E870E08BE490E03ADA750164019301820145E850E06FE570E0832D0FDC9301D4
:205A2000820145E850E067E870E08A8107DC9301820145E850E06FEA70E08981FFDB850172
:205A4000740125EC30E04BEE50E065E870E087ED90E059C03A808501740125EC30E0332084
:205A600021F142E750E065E870E08BE490E007DA750164019301820145E850E063E770E075
:205A8000832DDCDB9301820145E850E06BE970E08981D4DB8501740125EC30E04BEE50E049
:205AA00065E870E083EC90E02EC046E850E065E870E08BE490E0E3D97501640193018201F4
:205AC00045E850E067E870E08981B8DB8501740112C08501740125EC30E046E850E065E899
:205AE00070E08BE490E0CBD9A301920165E870E087E890E0B4DE25EC30E04BEE50E065E8B7
:205B000070E08FEA90E0BBD92496CDBFDEBFDF91CF911F910F91FF90EF90DF90CF90BF908A
:205B2000AF909F908F907F906F905F904F903F9008952F923F924F925F926F927F928F92F9
:205B40009F92AF92BF92CF92DF92EF92FF920F931F93CF93DF93CDB7DEB76397CDBFDEBF3A
:205B60002B013C012E833F8348875987EA86FB860C871D87CD822A2C382C8BA49CA4E5E82D
:205B8000F0E124912E87E6E8F0E134913F876D30710581059105A8F4A3EBBBE79B01AC015C
:205BA0000E94C34C20E137E240E050E00E94764C29833A834B835C8387E498EBA3E5B0E04A
:205BC000ACC0643271058105910528F5AFE3B5E49B01AC010E94C34C675C70498D4F9F4FA9
:205BE00020E137E240E050E00E94764C29833A834B835C8388E19AEEA2EFB0E080932E3539
:205C000090932F35A0933035B09331358AE598E5A8E5B0E08EC068E346165104610471048F
:205C2000C8F4AEE2B0E5A30192010E94C34C635978438F4F9F4F20E137E240E050E00E944C
:205C4000764C29833A834B835C8380E29DE7A3EFB0E063C077E94716510461047104C8F499
:205C6000A5E3B0E1A30192010E94C34C64527346814F9F4F20E137E240E050E00E94764C28
:205C800029833A834B835C8380E090E0AFEFB0E044C08BEF4816510461047104C8F4A3E6A0
:205CA000BFE0A30192010E94C34C625B704D804F9F4F20E137E240E050E00E94764C2983AC
:205CC0003A834B835C8380E59CE1A9E9B0E025C0ADEDB4E0A30192010E94C34C64547746E6
:205CE000864E9F4F20E137E240E050E00E94764C29833A834B835C83273E310541055105C7
:205D000040F026EE30E040E050E029833A834B835C8386E194E1AFEDB0E080932E35909328
:205D20002F35A0933035B09331358FEF9FEFAFEFB0E08093392A90933A2AA0933B2AB093AC
:205D40003C2A21E040912E3550912F3560913035709131358091162990911729A091182983
:205D6000B0911929481759076A077B0709F420E0222999F580911A2990911B29A0911C29E9
:205D8000B0911D2949815A816B817C81481759076A077B0711F5E0902E35F0902F350091EE
:205DA0003035109131352091282059A5252731E08091162990911729A0911829B09119297D
:205DC000E816F9060A071B0709F430E0232B09F076C1222009F41EC372C1AA24A39433205D
:205DE00081F01AE5C12EDC2CEC2CF12C0FEF1FEF2FEF30E045EC50E060E171E08CE596E0F3
:205E00000EC0CA84DB84EC84FD840FEF1FEF2FEF30E045EC50E060E171E08CEE97E083DC99
:205E2000AA24A394CE80DF80E884F9840FEF1FEF2FEF30E049E850E060E171E084E297E0BD
:205E400072DC0FEF1FEF2FEF30E040EF50E06AE070E08CE190E0A7D80FEF1FEF2FEF30E02B
:205E60004CE150E064E070E080E390E00BD90FEF1FEF2FEF30E04CE150E064E070E088E5E2
:205E800090E000D90FEF1FEF2FEF30E04CE150E064E070E080E890E0F5D80FEF1FEF2FEFBF
:205EA00030E04CE150E064E070E088EA90E0EAD80FEF1FEF2FEF30E04CE150E064E070E012
:205EC00080ED90E0DFD817E4E12E18EBF12E03E510E02FE230E04BE150E06AE070E084E0AF
:205EE00090E00E943F2718E1E12E1AEEF12E02EF10E027E530E04BE150E061E370E084E0AA
:205F000090E00E943F2710E2E12E1DE7F12E03EF10E02FE730E04BE150E069E570E084E07F
:205F200090E00E943F27E12CF12C0FEF10E027EA30E04BE150E061E870E084E090E00E9445
:205F40003F2710E5E12E1CE1F12E09E910E02FEC30E04BE150E069EA70E084E090E00E9439
:205F60003F2716E1E12E14E1F12E0FED10E02FEE30E04BE150E061ED70E084E090E00E9418
:205F80003F27E0902E35F0902F3500913035109131352FEE30E041E350E06AE070E08DE15E
:205FA00090E00E943F2789819A81AB81BC810597A109B1098093002990930129A0930229F4
:205FC000B093032900E010E0802FF801EC54F74FE491E093FF286EE10E94564CA92EB12CFE
:205FE00068E0869FC00111249C01442737FD4095542F288B398B4A8B5B8BC12CD12C760117
:20600000E0912620F0912720EA0DFB1DE093FD28F093FE2860910029709101298091022930
:2060200090910329288939894A895B89620F731F841F951F6C0D7D1D8E1D9F1D6093F92801
:206040007093FA288093FB289093FC289B01AC012A50310941095109263E310541055105C7
:20606000B0F42091FF2820FF05C02FEF3FEF4FEF50E00BC0ED31F10550F020912E35309112
:206080002F354091303550913135CF0169D88091FF2886958093FF283FEFC31AD30AE30AAC
:2060A000F30A48E0C416D104E104F10409F0A8CF0F5F1F4F0837110509F086CF6CCE2FEEEC
:2060C00030E04EE051E06AE070E082E390E00E943F27E0902E35F0902F350091303510918C
:2060E00031352FEE30E048E351E06EEE70E08BEA90E00E943F27E0902E35F0902F350091D0
:2061000030351091313523EC30E048E351E062EB70E08BEA90E00E943F27E0902E35F090BB
:206120002F35009130351091313527E830E048E351E06AE070E08BEA90E00E943F27E0908C
:206140002E35F0902F3500913035109131352FEE30E04AE351E06AE070E089E391E00E9457
:206160003F27E0902E35F0902F3500913035109131352091392A30913A2A40913B2A5091B5
:206180003C2A69A5662309F4FAC0CC24C394C301B201CDDBC0902E35D0902F35E090303599
:2061A000F090313577E4C71678EBD70673E5E706F104D1F40091392A10913A2A20913B2A73
:2061C00030913C2A41E8A42E47E2B42E57E4C52E58EBD52E53E5E52EF12C45E550E066E70F
:2061E00070E08CE994E214C188E1C8168AEED80682EFE806F104B1F421E8A22E27E2B22E37
:2062000038E1C32E3AEED32E32EFE32EF12C0AE518E528E530E045E550E06EE570E081EA8B
:2062200094E2F6C00091392A10913A2A20913B2A30913C2A91E8A92E97E2B92E90E2C916FB
:206240009DE7D90693EFE906F10409F053C080E2C82E8DE7D82E83EFE82EF12C45E550E098
:206260006BE470E08AEA94E292D8C0902E35D0902F35E0903035F09031350091392A109164
:206280003A2A20913B2A30913C2A45E550E06DEC70E084EB94E27BD8C0902E35D0902F35AB
:2062A000E0903035F09031350091392A10913A2A20913B2A30913C2A47E350E06EE370E0F2
:2062C00088EB94E264D8C0902E35D0902F35E0903035F09031350091392A10913A2A2091BD
:2062E0003B2A30913C2A47E350E064EB70E082EC94E28EC0C114D104AFEFEA06F10459F46D
:20630000C12CD12C7601EA9445E550E061E670E08AEA94E27DC0B0E5CB16BCE1DB06B9E9F0
:20632000EB06F10429F5A0E5CA2EACE1DA2EA9E9EA2EF12C45E550E061E470E089EC94E2A6
:2063400026D8C0902E35D0902F35E0903035F09031350091392A10913A2A20913B2A30913D
:206360003C2A45E550E067E870E08EEC94E250C045E550E068E570E088ED94E249C0C12CE6
:2063800060E070E0CB01D3DAE0902E35F0902F35009130351091313524E230E04AE351E0CC
:2063A0006AE070E08EEB90E00E943F27C0902E35D0902F35E0903035F09031350091392A2C
:2063C00010913A2A20913B2A30913C2AF1E8AF2EF7E2BF2E45E550E060E770E082EE94E228
:2063E0000E94C729C0902E35D0902F35E0903035F09031350091392A10913A2A20913B2ACA
:2064000030913C2A47E350E060E770E089EE94E20E94C7298091122990911329A0911429CE
:20642000B0911529481659066A067B0629F48091282029A52817A1F0E0902E35F0902F3564
:2064400000913035109131352091392A30913A2A40913B2A50913C2AC9A4C301B20167DA64
:2064600031E080910E2990910F29A0911029B09111294A855B856C857D85481759076A07B3
:206480007B0709F430E021E080910A2990910B29A0910C29B0910D294E815F81688579855C
:2064A000481759076A077B0709F420E0232B21F4809109293816A1F1AA24A394332081F0DE
:2064C000EAE5CE2EDC2CEC2CF12C0FEF1FEF2FEF30E045EC50E060E171E08CE596E00EC0D2
:2064E000CA84DB84EC84FD840FEF1FEF2FEF30E045EC50E060E171E08CEE97E014D9AA2425
:20650000A394CE80DF80E884F9840FEF1FEF2FEF30E049E850E060E171E084E297E003D9C8
:20652000211010C05D8151110BC0809104298F5F80930429843020F4609108296D8302C047
:2065400010920429C0902E35D0902F35E0903035F090313531E080910529909106298816FC
:20656000990609F430E021E08091162990911729A0911829B0911929C816D906EA06FB061A
:2065800009F420E0832F822B822929F4809108297D817817A9F197FC02C068E201C06AE0C4
:2065A00070E08D81813089F08230F9F40091392A10913A2A20913B2A30913C2AA12CAB0105
:2065C00060E171E084E094E00EC00091392A10913A2A20913B2A30913C2AA12CAB0160E193
:2065E00071E08CEC94E09FD80BC09B01285D3F4F8701760148E351E080E191E00E943F2738
:20660000C0902E35D0902F35E0903035F0903135209107299AA5292731E080911629909156
:206620001729A0911829B0911929C816D906EA06FB0609F430E0232B31E0809105299091AB
:2066400006298816990609F430E0322B11F4222021F197FC02C065E501C067E370E0AAA5C2
:20666000AA2381F00091392A10913A2A20913B2A30913C2AA12CAB0160E171E08CEF91E0AF
:2066800052D80BC09B01285D3F4F8701760148E351E080E191E00E943F27C0902E35D0900E
:2066A0002F35E0903035F090313531E080910529909106298816990609F430E021E08091BF
:2066C000162990911729A0911829B0911929C816D906EA06FB0609F420E0232B19F42220DD
:2066E00009F48DC097FC8BC0B0E18B16B7E29B0624F07FE0872E77E2972E0091392A10912B
:206700003A2A20913B2A30913C2A63E8A62E60E1B62E4FE050E064EB70E081EF94E20E940E
:20672000C729E0902E35F0902F35009130351091313527E230E04AE351E06FE070E08BE034
:2067400091E00E943F279F928F928AEF94E29F938F9303EE15E31F930F930E94E34CF80124
:2067600001900020E9F73197E35EF543DE2EA8010F900F900F900F900F900F90D80180E09F
:2067800090E02E85622F70E03F85032F10E02A2F241B2D15A0F4ED90F12CE61AF70AE09E88
:2067A000F001E19EF00DF09EF00D1124E957FF4E249130E02F5F3F4F820F931FE8CFC090F4
:2067C0002E35D0902F35E0903035F09031350091392A10913A2A20913B2A30913C2A969576
:2067E000879563E271E0681B790B53E8A52E50E1B52E4FE050E083EE95E30E94C7298092D2
:206800000529909206294AA54093072981E05D81511101C080E0809308293092092940923B
:20682000122950921329609214297092152980912E3590912F35A0913035B0913135809347
:20684000162990931729A0931829B09319296A857B858C859D8560930E2970930F29809303
:206860001029909311298E819F81A885B98580930A2990930B29A0930C29B0930D292981C0
:206880003A814B815C8120931A2930931B2940931C2950931D2939A5309328206396CDBFE8
:2068A000DEBFDF91CF911F910F91FF90EF90DF90CF90BF90AF909F908F907F906F905F9066
:2068C0004F903F902F9008958F929F92AF92BF92EF92FF920F931F93CF93DF93C82FD0E0E9
:2068E0007E01EE0CFF1CEE0CFF1C87010E561A4CF80180819181A281B381480F591F6A1FE2
:206900007B1F4083518362837383CE01880F991FFC01E758FC4C80809180BFEF8B1A9B0AC0
:2069200080829182DC01AD58BC4C8D919C918816990609F04EC010821182A12CB12CCB012E
